:100000000C94E1000C9409010C9409010C948B04EC
:100010000C948B040C948B040C9409010C947207BF
:100020000C9409010C9409010C9409010C94090128
:100030000C9409010C9409010C9409010C94090118
:100040000C9441040C9409010C94A4030C947E03B9
:100050000C9409010C9409010C9409010C940901F8
:100060000C9409010C94090100407A10F35A00A085
:10007000724E18090010A5D4E80000E87648170071
:1000800000E40B54020000CA9A3B000000E1F505B1
:10009000000080969800000040420F000000A086FB
:1000A00001000000102700000000E803000000002D
:1000B0006400000000000A000000000001000000D1
:1000C00000002C76D888DC674F0823DFC1DFAE59EB
:1000D000E1B1B796E5E3E453C63AE651997696E87E
:1000E000E6C28426EB898C9B62ED407C6FFCEFBC02
:1000F0009C9F40F2BAA56FA5F490055A2AF75C932D
:100100006B6CF9676DC11BFCE0E40D47FEF520E662
:10011000B500D0ED902E0300943577050080841E45
:10012000080000204E0A000000C80C333333330FA0
:10013000986E12831141EF8D2114893BE65516CF3D
:10014000FEE6DB18D1844B381BF77C1D901DA4BB49
:10015000E424203284725E228100C9F124ECA1E5FE
:100160003D2700000000240027002A0000000008AE
:10017000000201000003040700000000000000006E
:1001800002000000002300260029000000000025D6
:100190000028002B000404040404040404020202E6
:1001A00002020203030303030301020408102040B8
:1001B0008001020408102001020408102000600ED3
:1001C000440E11241FBECFEFD8E0DEBFCDBF13E039
:1001D000A0E0B1E0E6E5F6E202C005900D92AA319A
:1001E000B107D9F724E0AAE1B3E001C01D92A83617
:1001F000B207E1F710E0C0EED0E004C02197FE01A5
:100200000E941313CF3DD107C9F70E94CE070C946B
:100210001E130C940000FC01538D448D252F30E0FB
:10022000842F90E0821B930B541710F0CF96089503
:1002300001970895FC01918D828D981761F0828D50
:10024000DF01A80FB11D5D968C91928D9F5F9F730A
:10025000928F90E008958FEF9FEF0895FC01918DAC
:10026000828D981731F0828DE80FF11D858D90E019
:1002700008958FEF9FEF0895FC01918D228D892FB6
:1002800090E0805C9F4F821B91098F73992708959E
:100290008BE993E00E943C0121E0892B09F420E0E6
:1002A000822F0895FC01848DDF01A80FB11DA35A90
:1002B000BF4F2C91848D90E001968F739927848F86
:1002C000A689B7892C93A089B1898C9183708064A9
:1002D0008C93938D848D981306C00288F389E02D4A
:1002E00080818F7D80830895EF92FF920F931F93FB
:1002F000CF93DF93EC0181E0888F9B8D8C8D9813D9
:1003000005C0E889F989808185FD26C0F62E0B8D10
:1003100010E00F5F1F4F0F731127E02E8C8DE81236
:100320000CC00FB607FCFACFE889F989808185FFF8
:10033000F5CFCE010E945201F1CF8B8DFE01E80F67
:10034000F11DE35AFF4FF0829FB7F8940B8FEA89B3
:10035000FB89808180620AC09FB7F894EE89FF898B
:100360006083E889F98980818370806480839FBF7E
:1003700081E090E0DF91CF911F910F91FF90EF907E
:100380000895CF93DF93EC01888D8823C9F0EA8923
:10039000FB89808185FD05C0A889B9898C9186FD7E
:1003A0000FC00FB607FCF5CF808185FFF2CFA8897B
:1003B000B9898C9185FFEDCFCE010E945201E7CF24
:1003C000DF91CF91089580E090E0892B29F00E9481
:1003D000480181110C9400000895833081F028F4C5
:1003E000813099F08230A1F008958730A9F08830EB
:1003F000B9F08430D1F4809180008F7D03C080916A
:1004000080008F7780938000089584B58F7702C035
:1004100084B58F7D84BD08958091B0008F7703C02F
:100420008091B0008F7D8093B0000895CF93DF93CB
:10043000282F30E0F901E459FE4F8491F901E75586
:10044000FE4FD491F901EB56FE4FC491CC2391F0AD
:1004500081110E94ED01EC2FF0E0EE0FFF1FEF572E
:10046000FE4FA591B491EC91ED2381E090E021F451
:1004700080E002C080E090E0DF91CF9108958E305F
:1004800008F08E508770806480937C0080917A00A1
:10049000806480937A0080917A0086FDFCCF809101
:1004A00078002091790090E0922B08953FB7F8945E
:1004B00080915F0390916003A0916103B09162030A
:1004C00026B5A89B05C02F3F19F00196A11DB11DAF
:1004D0003FBFBA2FA92F982F8827820F911DA11DEA
:1004E000B11DBC01CD0142E0660F771F881F991F27
:1004F0004A95D1F708958F929F92AF92BF92CF9273
:10050000DF92EF92FF926B017C010E9456024B0139
:100510005C01C114D104E104F104F1F00E9456021F
:10052000DC01CB0188199909AA09BB09883E9340CF
:10053000A105B10570F321E0C21AD108E108F10864
:1005400088EE880E83E0981EA11CB11CC114D10452
:10055000E104F10419F7DDCFFF90EF90DF90CF9029
:10056000BF90AF909F908F9008952FB7F8946091AF
:100570005B0370915C0380915D0390915E032FBFDC
:10058000089520916503309166032817390771F4A7
:100590009091630380916403981741F0E0916303A5
:1005A000F0E0E65EFC4F808190E008958FEF9FEFD2
:1005B000089508951F93CF93DF93DC015C968D918E
:1005C0009C915D97009739F421E030E013963C93BD
:1005D0002E9312973BC05196ED91FC9152975096F5
:1005E0002C915097322F30951FB75E964C915E97A5
:1005F000742F727041FD6095F8944081772311F05B
:10060000422B01C043234083EC012197F1F748E0DE
:10061000508160FF02C0522B01C053235083EC0174
:100620002197F1F76695415099F78081772319F06A
:100630008323808302C0282B20831FBF5C968D916B
:100640009C915D970197F1F781E090E0DF91CF9168
:100650001F9108952091650330916603281739078B
:1006600071F4809164032091630390E0805C9F4F5C
:10067000821B910960E470E00E94EB12089580E013
:1006800090E008952091650330916603281739079B
:10069000B9F49091630380916403981789F0E09115
:1006A0006303F0E0E65EFC4F80812091630330E05D
:1006B0002F5F3F4F2F7333272093630390E00895FC
:1006C0008FEF9FEF0895089580E090E008950E94D5
:1006D00019136115710579F0FB0101900020E9F70C
:1006E0003197AF01461B570BDC01ED91FC91028065
:1006F000F381E02D099480E090E008951F920F921D
:100700000FB60F9211242F933F934F935F936F93E4
:100710007F938F939F93AF93BF93EF93FF938BE957
:1007200093E00E945201FF91EF91BF91AF919F9191
:100730008F917F916F915F914F913F912F910F908A
:100740000FBE0F901F9018951F920F920FB60F9229
:1007500011242F938F939F93EF93FF93E091AB031B
:10076000F091AC038081E091B103F091B20382FD7E
:1007700012C090818091B4038F5F8F732091B50375
:10078000821751F0E091B403F0E0E556FC4F958FED
:100790008093B40301C08081FF91EF919F918F916D
:1007A0002F910F900FBE0F901F9018951F93CF930E
:1007B000DF93282F30E0F901E459FE4F8491F901CD
:1007C000E755FE4FD491F901EB56FE4FC491CC236F
:1007D000C1F0162F81110E94ED01EC2FF0E0EE0F19
:1007E000FF1FE557FE4FA591B4919FB7F8941111E3
:1007F00004C08C91D095D82302C0EC91DE2BDC9301
:100800009FBFDF91CF911F910895CF93DF9390E029
:10081000FC01E755FE4F2491FC01EB56FE4F8491FD
:10082000882361F190E0880F991FFC01EE59FE4F7B
:10083000C591D491FC01E557FE4FA591B49161118A
:1008400009C09FB7F8948881209582238883EC9112
:100850002E230BC0623061F49FB7F8948881322F49
:10086000309583238883EC912E2B2C939FBF06C059
:100870008FB7F894E8812E2B28838FBFDF91CF911B
:1008800008951F920F920FB60F9211242F933F934A
:100890008F939F93AF93BF9380915B0390915C0381
:1008A000A0915D03B0915E0330915A0323E0230FC2
:1008B0002D3720F40196A11DB11D05C026E8230F98
:1008C0000296A11DB11D20935A0380935B03909360
:1008D0005C03A0935D03B0935E0380915F039091EE
:1008E0006003A0916103B09162030196A11DB11D47
:1008F00080935F0390936003A0936103B0936203BE
:10090000BF91AF919F918F913F912F910F900FBE0B
:100910000F901F9018951F920F920FB60F921124EF
:100920002F933F934F935F936F937F938F939F93F7
:10093000AF93BF93EF93FF93E0916503F09166034C
:10094000309709F451C0968DA685B785858591FFAE
:1009500004C09C91892329F447C09C91892309F004
:1009600043C0A389B4899C918589809589238C9300
:10097000868997890197F1F7608D718DA685B78576
:10098000558538E020E0CB010197F1F7822F90E008
:1009900095958795282F4C91452309F02068315073
:1009A00091F7868D81FD20958091640390E00196FA
:1009B0008F73992730916303381749F0A09164032E
:1009C000B0E0A65EBC4F2C938093640303C0868D79
:1009D0008160868F828D938D0197F1F7A389B48909
:1009E0009C918589892B8C93FF91EF91BF91AF9159
:1009F0009F918F917F916F915F914F913F912F9137
:100A00000F900FBE0F901F901895CF92DF92EF922C
:100A1000FF920F931F93CF93DF936C017A018B01A9
:100A2000C0E0D0E0CE15DF0581F0D8016D918D01D9
:100A3000D601ED91FC910190F081E02DC601099560
:100A4000892B11F02196EECF7E01C701DF91CF9166
:100A50001F910F91FF90EF90DF90CF9008958F92AC
:100A60009F92AF92BF92CF92DF92EF92FF921F932D
:100A7000CF93DF93EB0190910401891721F09F3F01
:100A800009F0F9C104C0E0E8F1E0149179C0809365
:100A90000401E0E8F1E014911F3F09F4ECC11130CA
:100AA00009F448C050F1123009F06AC01092B00049
:100AB0001092B1009091B00092609093B00090912C
:100AC000B10091609093B100282F30E0F901EB560E
:100AD000FE4FE491F0E0EE0FFF1FE557FE4F45910A
:100AE00054915093590440935804F901E755FE4F2F
:100AF000E491E093570412E0BAC114BC15BC94B55C
:100B0000926094BD95B5916095BD282F30E0F901B4
:100B1000EB56FE4FE491F0E0EE0FFF1FE557FE4F5E
:100B200045915491F901E755FE4FE491E0935B0440
:100B300010E09DC110928000109281009091810080
:100B400098609093810090918100916090938100D2
:100B5000282F30E0F901EB56FE4FE491F0E0EE0F64
:100B6000FF1FE557FE4F45915491F901E755FE4FA0
:100B7000E491E0935A0461E00E94050411E0A4C0EE
:100B800017FD79C161E00E940504812F8D7F09F076
:100B90009BC06E01E12CF12C60E072E18AE790E0ED
:100BA000A70196010E94731149015A01BA01A901D6
:100BB00041505109610971094F3F510561057105A6
:100BC00009F008F445C060E472E48FE090E0A7010A
:100BD00096010E947311BA01A9014150510961099E
:100BE00071091230E9F44F3F51056105710509F0B3
:100BF00008F4DDC060E970ED83E090E0A7019601A4
:100C00000E947311BA01A90141505109610971098A
:100C10004F3F51056105710509F020F583E04DC096
:100C20004F3F510561057105A9F0A0F068E478EE29
:100C300081E090E0A70196010E947311BA01A90119
:100C40004150510961097109112309F4E1C0D8C06B
:100C500081E001C082E0111130C095B5987F892BE9
:100C600085BD69C068E478EE81E090E0A701960157
:100C70000E947311BA01A90141505109610971091A
:100C80004F3F51056105710509F008F48EC064E21B
:100C900074EF80E090E0A70196010E947311BA0101
:100CA000A90141505109610971094F3F5105610581
:100CB000710511F008F07DC085E09091B100987F3A
:100CC000892B8093B10031C06E01E12CF12C60E0E2
:100CD00072E18AE790E0A70196010E947311BA01C0
:100CE000A90141505109610971094115510581E07E
:100CF0006807710580F068E478EE81E090E0A70174
:100D000096010E947311BA01A9014150510961096C
:100D1000710983E001C081E0113039F490918100C4
:100D2000987F892B8093810018C01130B1F0123068
:100D300049F11111A0C047BD8FEF9FEFDC018093F7
:100D4000640490936504A0936604B0936704809153
:100D50006E00826080936E008EC050938900409335
:100D600088008FEF9FEFDC01809360049093610413
:100D7000A0936204B093630480916F0082608093BB
:100D80006F0079C04093B3008FEF9FEFDC01809339
:100D90005C0490935D04A0935E04B0935F04809123
:100DA000700082608093700066C084E086CF82E02D
:100DB00084CF62E17AE780E090E0A70196010E948B
:100DC0007311BA01A90141505109610971094F3FDD
:100DD00051056105710591F088F0D501C4012AE043
:100DE000B595A795979587952A95D1F7AC01BD0143
:100DF000415051096109710987E05FCF86E05DCFFD
:100E00004F3F51056105710509F098F684E023CF45
:100E10004F3F51056105710541F138F162E17AE713
:100E200080E090E0A70196010E947311BA01A90128
:100E300041505109610971094F3F51056105710523
:100E400091F088F0D501C4013AE0B595A795979542
:100E500087953A95D1F7AC01BD014150510961091F
:100E6000710985E0FACE84E0F8CE83E0F6CE61E049
:100E70000E9405048ECEDF91CF911F91FF90EF90DD
:100E8000DF90CF90BF90AF909F908F9008959091FA
:100E90000401891324C0E0E8F1E0E4919FEF90930E
:100EA0000401E130B9F098F0E230C9F4909170009B
:100EB0009D7F9093700091E09093B0009091B1006D
:100EC000987F94609093B1001092B30008C0109284
:100ED0006E0005C090916F009D7F90936F0060E061
:100EE0000C94D6031F920F920FB60F9211242F93DA
:100EF0003F934F935F936F937F938F939F93AF93A2
:100F0000BF93EF93FF9380915C0490915D04A09157
:100F10005E04B0915F04892B8A2B8B2B51F1909149
:100F20005704E0915804F091590480818927808307
:100F300080915C0490915D04A0915E04B0915F0487
:100F4000181619061A061B06C4F480915C049091C9
:100F50005D04A0915E04B0915F040197A109B109FD
:100F600080935C0490935D04A0935E04B0935F044F
:100F700004C0809104010E944707FF91EF91BF9147
:100F8000AF919F918F917F916F915F914F913F9121
:100F90002F910F900FBE0F901F901895789484B5E5
:100FA000826084BD84B5816084BD85B5826085BD65
:100FB00085B5816085BD80916E00816080936E00F3
:100FC00010928100809181008260809381008091E5
:100FD0008100816080938100809180008160809396
:100FE00080008091B10084608093B1008091B00056
:100FF00081608093B00080917A00846080937A0051
:1010000080917A00826080937A0080917A0081607A
:1010100080937A0080917A00806880937A001092A1
:10102000C10062E082E00E94050462E088E00E9464
:10103000050462E083E00E94050462E087E00E940C
:10104000050462E084E00E94050462E085E00E94FD
:10105000050462E086E00E94050462E08AE00E94E6
:10106000050461E08BE00E94050410925304109285
:101070005204109251041092500410924F04109296
:101080004E048DE991E0909355048093540490911F
:101090004404963108F058C02DEB30E030934F04F3
:1010A00020934E042BE931E03093510420935004F7
:1010B0002CE231E0309353042093520440916800B5
:1010C000983058F031E09E3008F430E021E0822F73
:1010D00001C0880F3A95EAF701C084E0842B809321
:1010E0006800983038F09E3040F0963148F020E0AB
:1010F00030E008C02DE630E005C02BE630E002C04D
:101100002CE630E030934C0420934B04983030F4BC
:1011100081E001C0880F9A95EAF70EC0292F30E0D0
:101120009E3018F42850310902C02E50310981E058
:1011300001C0880F2A95EAF780934D0480915404EA
:10114000909155040197F1F78091520490915304C6
:10115000892B49F1E0916503F091660324E0E833BF
:10116000F20709F1309739F0A389B4899C918589F8
:10117000809589238C93809156048E7F80935604AA
:10118000109264031092630388E394E090936603E3
:1011900080936503E0914B04F0914C049081809121
:1011A0004D04892B8083E091AB03F091AC0382E086
:1011B0008083E091A703F091A8031082E091A90336
:1011C000F091AA0380E180831092B303E091AF0312
:1011D000F091B00386E08083E091AD03F091AE031F
:1011E000808180618083E091AD03F091AE038081C6
:1011F00088608083E091AD03F091AE0380818068C8
:101200008083E091AD03F091AE0380818F7D808378
:1012100060EA7FE080E090E00E947B026EEF88E36E
:1012200094E00E94DA0261E088E394E00E94DA022E
:1012300069E271E088E394E00E9469036AE371E087
:1012400088E394E00E94690360ED77E080E090E03D
:101250000E947B026EEF88E394E00E94DA0261E074
:1012600088E394E00E94DA0280E090E00E945D1141
:10127000C82F81E090E00E945D112C2F30E0322FCA
:101280002227282B30930301209302016BE471E0A5
:1012900088E394E00E946903609102017091030168
:1012A00080E090E00E945D1220E030E04AE754E4E4
:1012B0000E94EB11609383037093840380938503F2
:1012C000909386030FE613E023E045E00E940B0FA6
:1012D00060EC72E088E394E00E946903B80188E35F
:1012E00094E00E94690368E873E180E090E00E9466
:1012F0007B026EEF88E394E00E94DA0261E088E30B
:1013000094E00E94DA026CE571E088E394E00E94C8
:1013100069036DE671E088E394E00E946903C1E02F
:10132000D0E02FE0C22E27E2D22E86E00E941602E5
:10133000892B09F07DC384E00E941602892B09F0F5
:1013400077C368ED72E08BE993E00E9469036EEF6A
:1013500088E394E00E94DA0261E088E394E00E946E
:10136000DA026FED72E088E394E00E94690360EFB7
:1013700072E088E394E00E94690310926E03109279
:101380006D0380916D0390916E03892B59F48EE06B
:101390000E943F02843F9140A0F7D0936E03C09318
:1013A0006D03EFCF6EE771E08BE993E00E94690374
:1013B0006EEF88E394E00E94DA0261E088E394E053
:1013C0000E94DA0265E871E088E394E00E94690314
:1013D00010926E0310926D0380916D0390916E03D5
:1013E000892B59F48EE00E943F02853F9140A0F383
:1013F000D0936E03C0936D03EFCF6EEF88E394E05C
:101400000E94DA0261E088E394E00E94DA0266E971
:1014100071E088E394E00E9469030E94B5024B01E9
:101420005C0160939303709394038093950390936E
:10143000960310926E0310926D0380916D0390914C
:101440006E03892B51F482E00E941602892BA9F7C2
:10145000D0936E03C0936D03F0CF0E94B5026093EA
:101460009703709398038093990390939A03681954
:101470007909709392036093910367EA71E08BE9B5
:1014800093E00E9469030091910310919203B801C7
:1014900080E090E00E945D1220E030E04AE754E4F2
:1014A0000E94EB1160938303709384038093850300
:1014B0009093860380910201909103010817190708
:1014C00008F040C06EEF88E394E00E94DA0261E029
:1014D00088E394E00E94DA0261EB71E088E394E033
:1014E0000E94690360918303709184038091850356
:1014F000909186030FE613E023E045E00E940B0F76
:1015000060EC72E088E394E00E946903B80188E32C
:1015100094E00E946903809191036091920380930B
:10152000000160930101809302016093030180E058
:1015300090E00E9465116091910381E090E00E942B
:1015400065113DC280910001909101016EEF081775
:10155000190788F588E394E00E94DA0261E088E3E5
:1015600094E00E94DA0262EC71E088E394E00E9469
:101570006903609183037091840380918503909146
:1015800086030FE613E023E045E00E940B0F60ECBA
:1015900072E088E394E00E946903B80188E394E074
:1015A0000E946903809191039091920390930101AD
:1015B0008093000104C2083B1B4060F488E394E080
:1015C0000E94DA0261E088E394E00E94DA0262EDB0
:1015D00071E00BC088E394E00E94DA0261E088E3E6
:1015E00094E00E94DA0263EE71E088E394E00E94E6
:1015F00069036091830370918403809185039091C6
:1016000086030FE613E023E045E00E940B0F60EC39
:1016100072E088E394E00E946903CCC18EE00E94EE
:101620003F02843F914020F4D0936E03C0936D033A
:101630008FE00E943F02843F914020F4D0936C03DE
:10164000C0936B0380916D0390916E03892B31F3EE
:1016500080916B0390916C03892B01F364EF71E02F
:101660008BE993E00E9469036EEF88E394E00E94A7
:10167000DA0261E088E394E00E94DA026BEF71E045
:1016800088E394E00E9469036CE072E088E394E0F0
:101690000E94690310926E0310926D0310926C0306
:1016A00010926B0380916D0390916E03892B09F466
:1016B000EEC180916B0390916C03892B09F4E7C113
:1016C0006EEF88E394E00E94DA0261E088E394E040
:1016D0000E94DA026DE172E088E394E00E946903FF
:1016E00068EE73E080E090E00E947B026EEF88E39A
:1016F00094E00E94DA0261E088E394E00E94DA025A
:101700006EE272E088E394E00E94690368EE73E0A1
:1017100080E090E00E947B026EEF88E394E00E94FC
:10172000DA0261E088E394E00E94DA026FE372E09B
:1017300088E394E00E94690364EE7CE08BE00E9401
:101740002F0564EF71E080E090E00E947B028BE067
:101750000E94470764EF71E080E090E00E947B0206
:101760006EEF88E394E00E94DA0261E088E394E09F
:101770000E94DA0260E572E088E394E00E94690367
:1017800064EE7CE08BE00E942F0564EF71E080E066
:1017900090E00E947B028BE00E94470764EF71E0BB
:1017A00080E090E00E947B026EEF88E394E00E946C
:1017B000DA0261E088E394E00E94DA0261E672E016
:1017C00088E394E00E94690364EE7CE08BE00E9471
:1017D0002F0564EF71E080E090E00E947B028BE0D7
:1017E0000E94470764EF71E080E090E00E947B0276
:1017F00010926E0310926D0310926C0310926B03A3
:101800008EE00E943F028C018FE00E943F02053F64
:10181000114008F46CC1D0936E03C0936D03D09354
:101820006C03C0936B036EEF853F914008F443C196
:1018300088E394E00E94DA0261E088E394E00E9489
:10184000DA0262E772E088E394E00E946903809123
:10185000930390919403A0919503B0919603809384
:10186000970390939803A0939903B0939A03809160
:10187000890390918A03A0918B03B0918C0380938C
:101880008D0390938E03A0938F03B093900368EB26
:101890007BE080E090E00E947B0200916D0310915C
:1018A0006E030115110509F48CC180916B039091B1
:1018B0006C03892B09F485C18BE00E944707E090F7
:1018C0009703F09098038091930390919403E81A02
:1018D000F90AF0929203E092910300918D03109126
:1018E0008E038091890390918A03081B190B109332
:1018F000880300938703B70180E090E00E945D12A7
:1019000020E030E04AE754E40E94EB116093830347
:10191000709384038093850390938603B80180E0DD
:1019200090E00E945D1220E030E04AE754E40E941B
:10193000EB1160937F0370938003809381039093F6
:1019400082036EEF88E394E00E94DA0261E088E3AC
:1019500094E00E94DA02E016F10609F06EC165EA31
:1019600072E088E394E00E946903609183037091C0
:10197000840380918503909186030FE613E023E0B2
:1019800045E00E940B0FB80188E394E00E946903D0
:1019900062EC72E088E394E00E94690360917F0347
:1019A00070918003809181039091820323E045E050
:1019B0000E940B0FB80188E394E00E94690368E875
:1019C00073E180E090E00E947B026EEF88E394E098
:1019D0000E94DA0261E088E394E00E94DA026CE59A
:1019E00071E088E394E00E9469036DE671E088E3AA
:1019F00094E00E9469038AE00E941602892BA9F4F0
:101A0000D0920301C092020167E280E090E00E9460
:101A100065116091020181E090E00E94651168EE1D
:101A200073E080E090E00E947B020E94E3017DCCA5
:101A300086E00E941602892BF1F685E00E941602CC
:101A4000892BC9F661E073E08BE993E00E9469039A
:101A50006EEF88E394E00E94DA0261E088E394E0AC
:101A60000E94DA0268E073E088E394E00E94690370
:101A700060EF72E088E394E00E94690310926E03C5
:101A800010926D0310926C0310926B03DBCD83E018
:101A90000E941602892B21F4D0936E03C0936D032C
:101AA00087E00E941602892B09F0FCCDD0936C03CD
:101AB000C0936B03F7CD88E394E00E94DA0261E003
:101AC00088E394E00E94DA0263E872E088E394E03D
:101AD0000E9469038091930390919403A0919503D0
:101AE000B0919603815F984DAF4FBF4FB8CE853F01
:101AF0009140A8F1D0936E03C0936D03D0936C0313
:101B0000C0936B036EEF88E394E00E94DA0261E019
:101B100088E394E00E94DA0264E972E088E394E0EA
:101B20000E9469038091930390919403A09195037F
:101B3000B09196038093970390939803A093990391
:101B4000B0939A038091890390918A03A0918B03AB
:101B5000B0918C03815F984DAF4FBF4F90CE0E94E4
:101B6000B5026093930370939403809395039093CD
:101B700096036093890370938A0380938B039093F9
:101B80008C0364EE7CE08BE00E942F050E94B5027E
:101B900060936703709368038093690390936A036B
:101BA0006EEF88E394E00E94DA0261E088E394E05B
:101BB0000E94DA0266E971E088E394E00E9469031A
:101BC0006CCE0E94B5028090670390906803A0904D
:101BD0006903B0906A032401350124EF420E21E02D
:101BE000521E611C711C641575058605970508F465
:101BF00054CE82E00E941602892B11F4012B31F1A0
:101C000088E00E941602892B31F480916B03909139
:101C10006C03892B51F10E94B50228EE820E23E05D
:101C2000921EA11CB11C86169706A806B90608F0DC
:101C300034CE8BE00E94470730CEE016F10618F450
:101C400066EB72E08ECE67EC72E08BCED0936E03C3
:101C5000C0936D030E94B50260939703709398033D
:101C60008093990390939A03CBCFD0936C03C09346
:101C70006B030E94B50260938D0370938E03809373
:101C80008F0390939003C7CF8BE191E09093390439
:101C90008093380480916503909166038853944043
:101CA00071F4E0914B04F0914C04908180914D04CB
:101CB00080958923808310926603109265030895AE
:101CC00010929E0310929D0388EE93E0A0E0B0E096
:101CD00080939F039093A003A093A103B093A203CA
:101CE00029E031E030939C0320939B0325EC30E006
:101CF0003093A8032093A70324EC30E03093AA0389
:101D00002093A90320EC30E03093AC032093AB0385
:101D100021EC30E03093AE032093AD0322EC30E0B1
:101D20003093B0032093AF0326EC30E03093B2033E
:101D30002093B1031092B4031092B5031092B6032E
:101D40001092B70310923B0410923A0480933C0423
:101D500090933D04A0933E04B0933F048BE191E047
:101D6000909339048093380410924F0410924E04DB
:101D70001092510410925004109253041092520485
:101D80001092550410925404609156046E7F6D7F3A
:101D9000609356046695617081E068278CE00E942C
:101DA000D60361E08CE00E940504E5EBF1E0E491EC
:101DB000E0934804E1EAF1E0E491F0E0EE0FFF1F68
:101DC000E557FE4F8591949190934A04809349047E
:101DD00060E08DE00E9405048091560481FD04C0FE
:101DE00061E08DE00E94D6038DE080934404E6EB31
:101DF000F1E0E491E0934504E2EAF1E0E491F0E0FF
:101E0000EE0FFF1FEF57FE4F85919491909347047B
:101E1000809346040895EF920F931F93CF93DF931F
:101E2000E80147FD02C034E001C034E1042E000C9B
:101E3000550B57FF03C0519541955109E32E022FD1
:101E4000242FAE010E942B0FCE01DF91CF911F9165
:101E50000F91EF900895A9E0B0E0E1E3FFE00C946A
:101E600098116A01122FB02E2BE3201720F0FF24C7
:101E7000F394F00E02C02CE3F22E0F2D27E0AE01FA
:101E80004F5F5F4F0E948510BC014981842F89708C
:101E9000813031F0E1FC06C0E0FE06C090E205C0F2
:101EA0009DE203C09BE201C090E05E2D507143FFB4
:101EB0003CC0911102C083E001C084E0811718F496
:101EC000212F281B01C020E051110BC0F601822FE9
:101ED00030E2882319F031938150FBCFC20ED11C20
:101EE00020E0992329F0D6019C93F60131966F01E9
:101EF000C6010396E2FE0AC03EE4D6013C9341E4EB
:101F000011964C93119712963C9306C03EE6F6014B
:101F1000308341E641833283FC01322F40E2332398
:101F200009F442C041933150FACF42FF44C09111AD
:101F300002C083E001C084E0811718F4212F281B20
:101F400001C020E051110BC0F601822F30E288233E
:101F500019F031938150FBCFC20ED11C20E09923A0
:101F600029F0D6019C93F60131966F01C6010396C4
:101F7000E2FE0BC039E4D6013C933EE411963C935B
:101F8000119736E412963C9307C039E6F601308388
:101F90003EE6318336E63283FC01322F40E23323C2
:101FA00019F041933150FBCFFC01E20FF11D10827B
:101FB0008EEF9FEFA6C021E030E0911102C020E03B
:101FC00030E0161617061CF4FB01319602C0E1E062
:101FD000F0E02E0F3F1FBB2021F0EB2DF0E03196FB
:101FE00002C0E0E0F0E02E0F3F1FE12FF0E02E17DF
:101FF0003F071CF4121B212F01C020E08E2D887199
:1020000059F4F601822F30E2882319F03193815080
:10201000FBCFC20ED11C20E0992329F0D6019C935E
:10202000F60131966F0151110BC0F601822F90E33A
:10203000882319F091938150FBCFC20ED11C20E070
:102040000F2D060F9A81342F307144FF03C0913356
:1020500009F40150101624F4093018F008E001C00A
:1020600001E0AB0177FF02C040E050E0FB01E41B60
:10207000F50BA1E0B0E0AC0FBD1FEA0FFB1F8EE235
:10208000A82E4B01801A91080B2D10E01195019597
:1020900011094F3FBFEF5B0721F4D601AC921196B7
:1020A0006D01641775072CF08416950614F4818170
:1020B00001C080E3415051093196D60111967D014E
:1020C0004017510724F0D6018C936701E2CF6417C3
:1020D000750739F4963320F4953319F4311101C0A2
:1020E00081E3F6018083F701822F90E2882319F0C3
:1020F00091938150FBCFF701E20FF11D108280E038
:1021000090E02996ECE00C94B411283008F027E018
:102110003327DA01990F311D87FD91600096610523
:10212000710539F432602E5F3D9330E32A95E1F773
:1021300008959F3F30F080387105610509F03C5FDC
:102140003C5F3D93913008F08068911DDF93CF9301
:102150001F930F93FF92EF92192F987F9695E92F77
:1021600096959695E90FFF27EE53FF4F9927332752
:10217000EE24FF24A701E70105900894079428F4B2
:10218000360FE71EF81E491F511D660F771F881F67
:10219000991F0694A1F70590079428F4E70EF81EFE
:1021A000491F561FC11D770F881F991F661F069470
:1021B000A1F70590079428F4F80E491F561FC71F72
:1021C000D11D880F991F661F771F0694A1F70590F0
:1021D000079420F4490F561FC71FD81F990F661F79
:1021E000771F881F0694A9F784911095177041F006
:1021F000D695C79557954795F794E7941A95C1F7E3
:10220000E8E6F0E068941590159135916591959107
:1022100005907FE27395E118F10A430B560BC90B49
:10222000D009C0F7E10CF11E431F561FC91FD01D76
:102230007EF4703311F48A95E6CFE894015030F0C3
:10224000080F0AF40027021708F4202F2395022F05
:102250007A3328F079E37D932A95E9F710C07D93CE
:102260002A9589F60694979567953795179517944B
:10227000E118F10A430B560BC90BD00998F02395CE
:102280007E9173957A3308F070E37C932013B8F74E
:102290007E9170617D9330F0839571E37D9370E35F
:1022A0002A95E1F71124EF90FF900F911F91CF91A4
:1022B000DF91992787FD90950895F999FECF92BDFA
:1022C00081BDF89A992780B50895262FF999FECFF8
:1022D0001FBA92BD81BD20BD0FB6F894FA9AF99A43
:1022E0000FBE01960895052E97FB1EF400940E94E0
:1022F0008A1157FD07D00E94C91107FC03D04EF484
:102300000C948A1150954095309521953F4F4F4F31
:102310005F4F089590958095709561957F4F8F4F91
:102320009F4F08952F923F924F925F926F927F92AC
:102330008F929F92AF92BF92CF92DF92EF92FF92D5
:102340000F931F93CF93DF93CDB7DEB7CA1BDB0B81
:102350000FB6F894DEBF0FBECDBF09942A88398826
:1023600048885F846E847D848C849B84AA84B9842D
:10237000C884DF80EE80FD800C811B81AA81B98139
:10238000CE0FD11D0FB6F894DEBF0FBECDBFED014D
:102390000895A1E21A2EAA1BBB1BFD010DC0AA1FA6
:1023A000BB1FEE1FFF1FA217B307E407F50720F0BE
:1023B000A21BB30BE40BF50B661F771F881F991F39
:1023C0001A9469F760957095809590959B01AC0182
:1023D000BD01CF0108950E94FF110C94B1120E941B
:1023E000AA1258F00E94A31240F029F45F3F29F08E
:1023F0000C949A1251110C94E5120C94A0120E94A4
:10240000C21268F39923B1F3552391F3951B550B31
:10241000BB27AA2762177307840738F09F5F5F4FB7
:10242000220F331F441FAA1FA9F335D00E2E3AF0F6
:10243000E0E832D091505040E695001CCAF72BD00E
:10244000FE2F29D0660F771F881FBB1F261737075F
:102450004807AB07B0E809F0BB0B802DBF01FF2791
:1024600093585F4F3AF09E3F510578F00C949A12C2
:102470000C94E5125F3FE4F3983ED4F3869577958C
:102480006795B795F7959F5FC9F7880F911D96954A
:10249000879597F90895E1E0660F771F881FBB1FA6
:1024A000621773078407BA0720F0621B730B840B53
:1024B000BA0BEE1F88F7E0950895E89409C097FBE2
:1024C0003EF490958095709561957F4F8F4F9F4F0B
:1024D0009923A9F0F92F96E9BB279395F69587954F
:1024E00077956795B795F111F8CFFAF4BB0F11F412
:1024F00060FF1BC06F5F7F4F8F4F9F4F16C08823B9
:1025000011F096E911C0772321F09EE8872F762FEE
:1025100005C0662371F096E8862F70E060E02AF02F
:102520009A95660F771F881FDAF7880F969587951B
:1025300097F9089597F99F6780E870E060E0089543
:102540009FEF80EC089500240A94161617061806CB
:102550000906089500240A941216130614060506A7
:102560000895092E0394000C11F4882352F0BB0F38
:1025700040F4BF2B11F460FF04C06F5F7F4F8F4F9B
:102580009F4F089557FD9058440F551F59F05F3FD6
:1025900071F04795880F97FB991F61F09F3F79F085
:1025A00087950895121613061406551FF2CF469507
:1025B000F1DF08C0161617061806991FF1CF869589
:1025C0007105610508940895E894BB27662777276D
:1025D000CB0197F9089597FB072E16F4009407D0C6
:1025E00077FD09D00E94FF1207FC05D03EF49095BC
:1025F00081959F4F0895709561957F4F0895AA1B0F
:10260000BB1B51E107C0AA1FBB1FA617B70710F0DD
:10261000A61BB70B881F991F5A95A9F7809590950F
:10262000BC01CD010895EE0FFF1F0590F491E02D40
:10263000099481E090E0F8940C941E1310E0C0EE31
:10264000D0E004C0FE010E9413132196C13ED107C1
:06265000C9F7F894FFCF6A
:102656000F270F27FF00000000740105050B01C1BD
:10266600013C011A012E0100000000DA0205056492
:1026760003D9022A034203C10220202020535044DA
:1026860020414F452020202020002020426F6174E9
:1026960020526163657220563220002020416C6C06
:1026A6002054696D652042657374200020205265B0
:1026B60061647920746F2052616365200053656CF4
:1026C600656374203150206F7220325021005031E2
:1026D60052616365004472696E6B207768656E208F
:1026E6007265616479002020202020526163696E42
:1026F600672020202020005031526573756C74735A
:1027060000416C6C2054696D65205265636F72647C
:10271600210053657373696F6E205265636F72642F
:1027260021002020205665727920476F6F64212092
:10273600202000202020204E6F742042616420203B
:1027460020202000503252616365002020507265BF
:10275600737320427574746F6E20200020202057FA
:1027660068656E2052656164792020200020202053
:10277600202020203520202020202020200020205E
:10278600202020202034202020202020202000204F
:102796002020202020203320202020202020200040
:1027A6002020202020202032202020202020202011
:1027B6000020202020202020312020202020202022
:1027C60020002032782046616C7365205374617254
:1027D60074200046616C7365205374617274202006
:1027E60020202000202020202046616C7365205385
:1027F60074617274002020202020205469652020F6
:1028060020202020200057696E6E6572202020202F
:1028160020202020202000202020202020202020D2
:102826002057696E6E6572005031496E69740020DA
:10283600202020506C6163652043757020202000A5
:1028460020202020546F2053746172742020202091
:10285600005032496E69740020202020506C61635C
:0A2866006520437570732020000008
:00000001FF
