:100000000C94E0000C9408010C9408010C94750405
:100010000C9475040C9475040C9408010C9408015C
:100020000C9408010C9408010C9408010C9408012C
:100030000C9408010C9408010C9408010C9408011C
:100040000C942B040C9408010C9408030C94E20209
:100050000C9408010C9408010C9408010C940801FC
:100060000C9408010C94080100407A10F35A00A087
:10007000724E18090010A5D4E80000E87648170071
:1000800000E40B54020000CA9A3B000000E1F505B1
:10009000000080969800000040420F000000A086FB
:1000A00001000000102700000000E803000000002D
:1000B0006400000000000A000000000001000000D1
:1000C00000002C76D888DC674F0823DFC1DFAE59EB
:1000D000E1B1B796E5E3E453C63AE651997696E87E
:1000E000E6C28426EB898C9B62ED407C6FFCEFBC02
:1000F0009C9F40F2BAA56FA5F490055A2AF75C932D
:100100006B6CF9676DC11BFCE0E40D47FEF520E662
:10011000B500D0ED902E0300943577050080841E45
:10012000080000204E0A000000C80C333333330FA0
:10013000986E12831141EF8D2114893BE65516CF3D
:10014000FEE6DB18D1844B381BF77C1D901DA4BB49
:10015000E424203284725E228100C9F124ECA1E5FE
:100160003D2700000000240027002A0000000008AE
:10017000000201000003040700000000000000006E
:1001800000000000230026002900000000002500D8
:1001900028002B00040404040404040402020202E4
:1001A000020203030303030301020408102040803A
:1001B000010204081020010204081020510D350D21
:1001C00011241FBECFEFD8E0DEBFCDBF13E0A0E00B
:1001D000B1E0EAE3F4E202C005900D92AC31B10760
:1001E000D9F724E0ACE1B3E001C01D92A53AB20713
:1001F000E1F710E0CFEDD0E004C02197FE010E94AE
:100200000512CE3DD107C9F70E94C8050C94101203
:100210000C940000FC01538D448D252F30E0842F79
:1002200090E0821B930B541710F0CF96089501971E
:100230000895FC01918D828D981761F0828DDF0108
:10024000A80FB11D5D968C91928D9F5F9F73928FC9
:1002500090E008958FEF9FEF0895FC01918D828DBE
:10026000981731F0828DE80FF11D858D90E008958B
:100270008FEF9FEF0895FC01918D228D892F90E0E3
:10028000805C9F4F821B91098F739927089581EAA3
:1002900093E00E943B0121E0892B09F420E0822FAA
:1002A0000895FC01848DDF01A80FB11DA35ABF4F33
:1002B0002C91848D90E001968F739927848FA68965
:1002C000B7892C93A089B1898C91837080648C93B9
:1002D000938D848D981306C00288F389E02D808168
:1002E0008F7D80830895EF92FF920F931F93CF939A
:1002F000DF93EC0181E0888F9B8D8C8D981305C076
:10030000E889F989808185FD26C0F62E0B8D10E0E5
:100310000F5F1F4F0F731127E02E8C8DE8120CC05A
:100320000FB607FCFACFE889F989808185FFF5CF00
:10033000CE010E945101F1CF8B8DFE01E80FF11D1E
:10034000E35AFF4FF0829FB7F8940B8FEA89FB893D
:10035000808180620AC09FB7F894EE89FF8960832C
:10036000E889F98980818370806480839FBF81E000
:1003700090E0DF91CF911F910F91FF90EF90089542
:10038000CF93DF93EC01888D8823C9F0EA89FB893C
:10039000808185FD05C0A889B9898C9186FD0FC033
:1003A0000FB607FCF5CF808185FFF2CFA889B98908
:1003B0008C9185FFEDCFCE010E945101E7CFDF91F7
:1003C000CF91089580E090E0892B29F00E944701A9
:1003D00081110C9400000895833081F028F481305D
:1003E00099F08230A1F008958730A9F08830B9F0F3
:1003F0008430D1F4809180008F7D03C08091800093
:100400008F7780938000089584B58F7702C084B57C
:100410008F7D84BD08958091B0008F7703C0809157
:10042000B0008F7D8093B00008953FB7F89480911D
:100430009D0390919E03A0919F03B091A00326B5C8
:10044000A89B05C02F3F19F00196A11DB11D3FBF0C
:10045000BA2FA92F982F8827820F911DA11DB11D9A
:10046000BC01CD0142E0660F771F881F991F4A9596
:10047000D1F7089520911E0330911F0328173907E3
:1004800071F490911C0380911D03981741F0E09145
:100490001C03F0E0E85AFC4F808190E008958FEF54
:1004A0009FEF089508951F93CF93DF93DC015C962F
:1004B0008D919C915D97009739F421E030E013967F
:1004C0003C932E9312973BC05196ED91FC9152971D
:1004D00050962C915097322F30951FB75E964C91C5
:1004E0005E97742F727041FD6095F8944081772378
:1004F00011F0422B01C043234083EC012197F1F717
:1005000048E0508160FF02C0522B01C0532350834A
:10051000EC012197F1F76695415099F78081772397
:1005200019F08323808302C0282B20831FBF5C9691
:100530008D919C915D970197F1F781E090E0DF91BB
:10054000CF911F91089520911E0330911F0328170A
:10055000390771F480911D0320911C0390E0805CA9
:100560009F4F821B910960E470E00E94DD110895A5
:1005700080E090E0089520911E0330911F0328171A
:100580003907B9F490911C0380911D03981789F0E5
:10059000E0911C03F0E0E85AFC4F808120911C039D
:1005A00030E02F5F3F4F2F73332720931C0390E0E1
:1005B00008958FEF9FEF0895089580E090E00895EB
:1005C0000E940B121F920F920FB60F9211242F93BD
:1005D0003F934F935F936F937F938F939F93AF93CB
:1005E000BF93EF93FF9381EA93E00E945101FF9143
:1005F000EF91BF91AF919F918F917F916F915F919B
:100600004F913F912F910F900FBE0F901F90189513
:100610001F920F920FB60F9211242F938F939F93D7
:10062000EF93FF93E091B103F091B2038081E091E9
:10063000B703F091B80382FD12C090818091BA0394
:100640008F5F8F732091BB03821751F0E091BA0343
:10065000F0E0EF55FC4F958F8093BA0301C0808185
:10066000FF91EF919F918F912F910F900FBE0F905F
:100670001F901895CF93DF93282F30E0F901E459AC
:10068000FE4F8491F901E855FE4FD491F901EC56E3
:10069000FE4FC491CC2391F081110E94EC01EC2F0C
:1006A000F0E0EE0FFF1FE058FE4FA591B491EC91E2
:1006B000ED2381E090E021F480E002C080E090E052
:1006C000DF91CF9108951F93CF93DF93282F30E0D0
:1006D000F901E459FE4F8491F901E855FE4FD49198
:1006E000F901EC56FE4FC491CC23C1F0162F8111B5
:1006F0000E94EC01EC2FF0E0EE0FFF1FE657FE4FDB
:10070000A591B4919FB7F894111104C08C91D09524
:10071000D82302C0EC91DE2BDC939FBFDF91CF91F9
:100720001F910895CF93DF9390E0FC01E855FE4FB1
:100730002491FC01EC56FE4F8491882361F190E0F6
:10074000880F991FFC01EE59FE4FC591D491FC0111
:10075000E657FE4FA591B491611109C09FB7F89477
:100760008881209582238883EC912E230BC06230F0
:1007700061F49FB7F8948881322F30958323888362
:10078000EC912E2B2C939FBF06C08FB7F894E88175
:100790002E2B28838FBFDF91CF9108958E3008F0E4
:1007A0008E508770806480937C0080917A00806492
:1007B00080937A0080917A0086FDFCCF809178004A
:1007C0002091790090E0922B08958F929F92AF92A2
:1007D000BF92CF92DF92EF92FF926B017C010E9459
:1007E00015024B015C01C114D104E104F104F1F0E4
:1007F0000E941502DC01CB0188199909AA09BB09DD
:10080000883E9340A105B10570F321E0C21AD108DA
:10081000E108F10888EE880E83E0981EA11CB11C47
:10082000C114D104E104F10419F7DDCFFF90EF907A
:10083000DF90CF90BF90AF909F908F9008952FB78B
:10084000F8946091990370919A0380919B03909121
:100850009C032FBF08951F920F920FB60F92112481
:100860002F933F938F939F93AF93BF93809199035F
:1008700090919A03A0919B03B0919C0330919803AF
:1008800023E0230F2D3720F40196A11DB11D05C0D3
:1008900026E8230F0296A11DB11D20939803809393
:1008A000990390939A03A0939B03B0939C03809128
:1008B0009D0390919E03A0919F03B091A003019688
:1008C000A11DB11D80939D0390939E03A0939F0350
:1008D000B093A003BF91AF919F918F913F912F91C2
:1008E0000F900FBE0F901F9018951F920F920FB68A
:1008F0000F9211242F933F934F935F936F937F93A6
:100900008F939F93AF93BF93EF93FF93E0911E0359
:10091000F0911F03309709F451C0968DA685B785D5
:10092000858591FF04C09C91892329F447C09C913F
:10093000892309F043C0A389B4899C918589809556
:1009400089238C93868997890197F1F7608D718D42
:10095000A685B785558538E020E0CB010197F1F7F2
:10096000822F90E095958795282F4C91452309F08B
:100970002068315091F7868D81FD209580911D036F
:1009800090E001968F73992730911C03381749F036
:10099000A0911D03B0E0A85ABC4F2C9380931D0377
:1009A00003C0868D8160868F828D938D0197F1F7CC
:1009B000A389B4899C918589892B8C93FF91EF91B0
:1009C000BF91AF919F918F917F916F915F914F9167
:1009D0003F912F910F900FBE0F901F9018956115AA
:1009E000710579F0FB0101900020E9F73197AF0123
:1009F000461B570BDC01ED91FC910280F381E02D49
:100A0000099480E090E00895CF92DF92EF92FF92F8
:100A10000F931F93CF93DF936C017A018B01C0E09A
:100A2000D0E0CE15DF0581F0D8016D918D01D601A2
:100A3000ED91FC910190F081E02DC6010995892B83
:100A400011F02196EECF7E01C701DF91CF911F916A
:100A50000F91FF90EF90DF90CF900895E1EAF3E0DF
:100A6000A089B18982E08C93A485B5851C92A68566
:100A7000B78580E18C93108EA489B58986E08C932C
:100A8000A289B3898C9180618C93A289B3898C915E
:100A900088608C93A289B3898C9180688C9302883A
:100AA000F389E02D80818F7D808308958F929F92BE
:100AB000AF92BF92CF92DF92EF92FF926B017C01D7
:100AC0000E941F044B015C01C60ED71EE81EF91ED2
:100AD0000E941F04681579058A059B0528F0C61633
:100AE000D706E806F906A0F7FF90EF90DF90CF90C9
:100AF000BF90AF909F908F9008950C94EF048F92C9
:100B00009F92AF92BF92EF92FF920F931F93CF935A
:100B1000DF93CDB7DEB7A1970FB6F894DEBF0FBE57
:100B2000CDBF7C01FA01CB0119A2223008F42AE0E2
:100B30008E010F5D1F4F822E912CA12CB12CBF0175
:100B4000A50194010E941211F901CA010150110975
:100B50006A3014F4605D01C0695CD8016C93232B8A
:100B6000242B252B61F7B801C7010E94EF04A19641
:100B70000FB6F894DEBF0FBECDBFDF91CF911F91AE
:100B80000F91FF90EF90BF90AF909F908F9008953E
:100B9000789484B5826084BD84B5816084BD85B558
:100BA000826085BD85B5816085BD80916E00816064
:100BB00080936E001092810080918100826080930A
:100BC000810080918100816080938100809180000C
:100BD0008160809380008091B10084608093B10037
:100BE0008091B00081608093B00080917A00846031
:100BF00080937A0080917A00826080937A0080915D
:100C00007A00816080937A0080917A008068809376
:100C10007A001092C1001092820410928304109204
:100C200084041092850410924004109241041092A2
:100C300042041092430468EB7BE080E090E00E9465
:100C4000560581EA93E090938104809380040E948A
:100C50002E050E941F04609340047093410480930A
:100C600042049093430468E271E080918004909183
:100C700081040E947D056AE070E080E090E00E94BF
:100C8000560581E0809354040E941F0400914004A3
:100C9000109141042091420430914304DC01CB01C6
:100CA000801B910BA20BB30B82339105A105B105FB
:100CB00070F442E350E060E070E08A019B01081BA1
:100CC000190B2A0B3B0BC901B8010E9456050E9463
:100CD0001F046093400470934104809342049093F6
:100CE00043046AE371E080918004909181040E9442
:100CF0007D0561E471E080918004909181040E94FF
:100D00007D0561E471E080918004909181040E94EE
:100D10007D0561E471E080918004909181040E94DE
:100D20007D0561E471E080918004909181040E94CE
:100D30007D0563E471E080918004909181040E94BC
:100D40007D056AE070E080E090E00E94560562E078
:100D500082E00E94920362E088E00E94920362E0D7
:100D600083E00E94920362E087E00E94920362E0C7
:100D700084E00E94920362E085E00E94920362E0B8
:100D800086E00E94920362E08AE00E94920361E0A2
:100D90008BE00E9492031092A1041092A004109282
:100DA0009F0410929E0410929D0410929C048DE961
:100DB00091E09093A3048093A204909192049631C1
:100DC00008F058C02DEB30E030939D0420939C0434
:100DD0002BE931E030939F0420939E042CE231E014
:100DE0003093A1042093A00440916800983058F0FB
:100DF00031E09E3008F430E021E0822F01C0880FFE
:100E00003A95EAF701C084E0842B8093680098301B
:100E100038F09E3040F0963148F020E030E008C0D5
:100E20002DE630E005C02BE630E002C02CE630E0D5
:100E300030939A0420939904983030F481E001C0F3
:100E4000880F9A95EAF70EC0292F30E09E3018F4EB
:100E50002850310902C02E50310981E001C0880FAD
:100E60002A95EAF780939B048091A2049091A304B1
:100E70000197F1F78091A0049091A104892B49F189
:100E8000E0911E03F0911F0314E0E638F10709F129
:100E9000309739F0A389B4899C91858980958923FD
:100EA0008C938091A4048E7F8093A40410921D03E0
:100EB00010921C0386E894E090931F0380931E0316
:100EC000E0919904F0919A04908180919B04892B80
:100ED00080830E942E0560EA7FE080E090E00E941F
:100EE000E5036EEF86E894E00E94530261E086E835
:100EF00094E00E9453026CE471E086E894E00E9462
:100F0000EF046DE571E086E894E00E94EF0460ED87
:100F100077E080E090E00E94E5036EEF86E894E0E1
:100F20000E94530261E086E894E00E94530280E050
:100F300090E00E94FC10C82F81E090E00E94FC101D
:100F40002C2F30E0322F2227282B309303012093BF
:100F500002016EE671E086E894E00E94EF04609181
:100F600002017091030180E090E00E946E1020E089
:100F700030E04AE754E40E946B1160933C037093A5
:100F80003D0380933E0390933F0308E213E023E088
:100F900045E00E941C0E63EC72E086E894E00E943B
:100FA000EF04B80186E894E00E94EF0468E873E17A
:100FB00080E090E00E94E5036EEF86E894E00E94F6
:100FC000530261E086E894E00E9453026FE771E00B
:100FD00086E894E00E94EF0460E971E086E894E01E
:100FE0000E94EF04C1E0D0E02FE0E22E27E2F22ED3
:100FF0000E941F0400915403109155032091560341
:1010000030915703DC01CB01801B910BA20BB30B7A
:1010100086399105A105B10508F4D2C00E941F04CC
:101020006093540370935503809356039093570332
:1010300061E070E080E090E00E9456050E941F048D
:10104000609340047093410480934204909343045E
:101050006AE371E080918004909181040E947D0593
:1010600061E471E080918004909181040E947D058B
:1010700000E010E0812C912C540120E0822F002E02
:1010800001C0880F0A94EAF7182B0F5F083031F07F
:101090003DE083169104A104B104A9F4412F50E06E
:1010A00060E070E02AE080918004909181040E94C9
:1010B0007F0561EA71E080918004909181040E9433
:1010C0007D0500E010E061E070E080E090E00E94CB
:1010D00056058FEF881A980AA80AB80AAEE08A1651
:1010E0009104A104B10471F021E082169104A104DD
:1010F000B10419F2882D0E943A0321E0892B09F0EE
:10110000BDCFBBCF61E070E080E090E00E9456056B
:1011100061E471E080918004909181040E947D05DA
:10112000D12C8D2D0E94CE0300918004109181045A
:101130004C01990FAA08BB08B7FE12C0D801ED9167
:10114000FC910190F081E02D6DE2C80109954427E2
:101150005527BA01481959096A097B092AE003C0D1
:101160002AE0B501A401C8010E947F0561EA71E08F
:1011700080918004909181040E947D05D394B6E013
:10118000DB12CFCF61E471E0809180049091810403
:101190000E947D0561E471E080918004909181045A
:1011A0000E947D0563E471E0809180049091810448
:1011B0000E947D0561E070E080E090E00E945605AD
:1011C00086E00E943A03892B09F074C384E00E94F0
:1011D0003A03892B09F06EC36BED72E081EA93E06C
:1011E0000E94EF046EEF86E894E00E94530261E0F3
:1011F00086E894E00E94530262EE72E086E894E092
:101200000E94EF0463EF72E086E894E00E94EF042E
:1012100010922703109226038091260390912703B2
:10122000892B51F48EE00E94CE030597A8F7D09346
:101230002703C0932603F0CF63EA71E081EA93E0CD
:101240000E94EF046EEF86E894E00E94530261E092
:1012500086E894E00E9453026AEA71E086E894E02E
:101260000E94EF0410922703109226038091260318
:1012700090912703892B51F48EE00E94CE030697AC
:10128000A8F3D0932703C0932603F0CF6EEF86E830
:1012900094E00E94530261E086E894E00E945302C9
:1012A0006BEB71E086E894E00E94EF040E941F045B
:1012B0004B015C0160934C0370934D0380934E038C
:1012C00090934F03109227031092260380912603D8
:1012D00090912703892B51F482E00E943A03892BD5
:1012E000A9F7D0932703C0932603F0CF0E941F04D1
:1012F0006093500370935103809352039093530370
:101300006819790970934B0360934A036CEC71E0A0
:1013100081EA93E00E94EF0400914A0310914B038D
:10132000B80180E090E00E946E1020E030E04AE7D3
:1013300054E40E946B1160933C0370933D038093CF
:101340003E0390933F03809102019091030108179F
:10135000190708F040C06EEF86E894E00E9453023F
:1013600061E086E894E00E94530266ED71E086E851
:1013700094E00E94EF0460913C0370913D038091E2
:101380003E0390913F0308E213E023E045E00E9412
:101390001C0E63EC72E086E894E00E94EF04B80152
:1013A00086E894E00E94EF0480914A0360914B0329
:1013B0008093000160930101809302016093030117
:1013C00080E090E00E94041160914A0381E090E087
:1013D0000E94041136C280910001909101016EEFCC
:1013E0000817190788F586E894E00E94530261E027
:1013F00086E894E00E94530267EE71E086E894E08C
:101400000E94EF0460913C0370913D0380913E0384
:1014100090913F0308E213E023E045E00E941C0E98
:1014200063EC72E086E894E00E94EF04B80186E87D
:1014300094E00E94EF0480914A0390914B039093B3
:10144000010180930001FDC186E894E0083B1B4048
:1014500050F40E94530261E086E894E00E94530237
:1014600067EF71E009C00E94530261E086E894E0F2
:101470000E94530268E072E086E894E00E94EF0464
:1014800060913C0370913D0380913E0390913F0336
:1014900008E213E023E045E00E941C0E63EC72E0DA
:1014A00086E894E00E94EF04C7C18EE00E94CE035C
:1014B000059720F4D0932703C09326038FE00E9462
:1014C000CE03059720F4D0932503C0932403809185
:1014D000260390912703892B41F380912403909157
:1014E0002503892B11F369E172E081EA93E00E9400
:1014F000EF046EEF86E894E00E94530261E086E814
:1015000094E00E94530260E272E086E894E00E9458
:10151000EF0461E372E086E894E00E94EF04109229
:101520002703109226031092250310922403809122
:10153000260390912703892B09F4EBC180912403A2
:1015400090912503892B09F4E4C16EEF86E894E0BD
:101550000E94530261E086E894E00E94530262E434
:1015600072E086E894E00E94EF0468EE73E080E0A9
:1015700090E00E94E5036EEF86E894E00E9453023B
:1015800061E086E894E00E94530263E572E086E839
:1015900094E00E94EF0468EE73E080E090E00E9427
:1015A000E5036EEF86E894E00E94530261E086E86E
:1015B00094E00E94530264E672E086E894E00E94A0
:1015C000EF0461E08BE00E94630364EF71E080E070
:1015D00090E00E94E50360E08BE00E94630364EF0B
:1015E00071E080E090E00E94E5036EEF86E894E011
:1015F0000E94530261E086E894E00E94530265E78E
:1016000072E086E894E00E94EF0461E08BE00E94C3
:10161000630364EF71E080E090E00E94E50360E026
:101620008BE00E94630364EF71E080E090E00E9431
:10163000E5036EEF86E894E00E94530261E086E8DD
:1016400094E00E94530266E872E086E894E00E940B
:10165000EF0461E08BE00E94630364EF71E080E0DF
:1016600090E00E94E50360E08BE00E94630364EF7A
:1016700071E080E090E00E94E50310922703109251
:10168000260310922503109224038EE00E94CE03BD
:101690008C018FE00E94CE030630110508F44DC185
:1016A000D0932703C0932603D0932503C09324032C
:1016B0006EEF86E894E00E94530261E086E894E0D1
:1016C0000E94530267E972E086E894E00E94EF040A
:1016D00080914C0390914D03A0914E03B0914F0324
:1016E0008093500390935103A0935203B0935303FC
:1016F0008091420390914303A0914403B09145032C
:101700008093460390934703A0934803B093490303
:1017100068EB7BE080E090E00E94E5030091260307
:10172000109127030115110509F43BC18091240391
:1017300090912503892B09F434C160E08BE00E946D
:101740006303A0905003B090510380914C0390919B
:101750004D03A81AB90AB0924B03A0924A03009114
:101760004603109147038091420390914303081B65
:10177000190B1093410300934003B50180E090E002
:101780000E946E1020E030E04AE754E40E946B11A2
:1017900060933C0370933D0380933E0390933F031B
:1017A000B80180E090E00E946E1020E030E04AE74F
:1017B00054E40E946B116093380370933903809353
:1017C0003A0390933B036EEF86E894E00E94530245
:1017D00061E086E894E00E945302A016B10609F089
:1017E0001DC168EA72E086E894E00E94EF0460910F
:1017F0003C0370913D0380913E0390913F0308E2CA
:1018000013E023E045E00E941C0EB80186E894E056
:101810000E94EF0465EC72E086E894E00E94EF0419
:10182000609138037091390380913A0390913B03A2
:1018300023E045E00E941C0EB80186E894E00E9477
:10184000EF0468E873E180E090E00E94E5036EEF4A
:1018500086E894E00E94530261E086E894E00E94EA
:1018600053026FE771E086E894E00E94EF0460E9BC
:1018700071E086E894E00E94EF048AE00E943A0357
:10188000892BA9F4F0920301E092020167E280E063
:1018900090E00E9404116091020181E090E00E94BA
:1018A000041168EE73E080E090E00E94E5030E947E
:1018B000E2019ECB86E00E943A03892BF1F685E097
:1018C0000E943A03892BC9F664E073E081EA93E051
:1018D0000E94EF046EEF86E894E00E94530261E0FC
:1018E00086E894E00E9453026BE073E086E894E09F
:1018F0000E94EF0463EF72E086E894E00E94EF0438
:1019000010922703109226031092250310922403AD
:10191000DECD83E00E943A03892B21F4D093270384
:10192000C093260387E00E943A03892B09F0FFCD7C
:10193000D0932503C0932403FACD069708F0B0CEC8
:101940000E941F0460934C0370934D0380934E03D9
:1019500090934F0360934203709343038093440337
:101960009093450361E08BE00E9463030E941F0493
:1019700060932003709321038093220390932303A9
:101980006EEF86E894E00E94530261E086E894E0FE
:101990000E9453026BEB71E086E894E00E94EF0432
:1019A000BDCE0E941F048090200390902103A09040
:1019B0002203B09023032401350134EF430E31E0BC
:1019C000531E611C711C641575058605970508F486
:1019D000A5CE82E00E943A03892B11F4012B39F144
:1019E00088E00E943A03892B31F48091240390917E
:1019F0002503892B59F10E941F04A8EE8A0EA3E04B
:101A00009A1EA11CB11C86169706A806B90608F0F6
:101A100085CE60E08BE00E94630380CEA016B10605
:101A200018F469EB72E0DFCE6AEC72E0DCCED093A2
:101A30002703C09326030E941F04609350037093F2
:101A400051038093520390935303CACFD09325033D
:101A5000C09324030E941F046093460370934703BE
:101A60008093480390934903C6CF8AE191E0909315
:101A700087048093860480911E0390911F038658EB
:101A8000944071F4E0919904F0919A0490818091CE
:101A90009B0480958923808310921F0310921E035C
:101AA00008951092A4031092A30388EE93E0A0E09F
:101AB000B0E08093A5039093A603A093A703B093EF
:101AC000A80328E031E03093A2032093A10325EC82
:101AD00030E03093AE032093AD0324EC30E030933C
:101AE000B0032093AF0320EC30E03093B203209397
:101AF000B10321EC30E03093B4032093B30322EC24
:101B000030E03093B6032093B50326EC30E03093F9
:101B1000B8032093B7031092BA031092BB0310923C
:101B2000BC031092BD03109244041092450410921D
:101B300046041092470410924804109249041092EF
:101B40004A0410924B0410924C0410924D041092CF
:101B50004E0410924F0410925004109251041092AF
:101B600052041092530410928904109288048093B6
:101B70008A0490938B04A0938C04B0938D048AE123
:101B800091E0909387048093860410929D041092B4
:101B90009C0410929F0410929E041092A104109233
:101BA000A0041092A3041092A2046091A4046E7F7A
:101BB0006D7F6093A4046695617081E068278CE076
:101BC0000E94630361E08CE00E949203E4EBF1E089
:101BD000E491E0939604E0EAF1E0E491F0E0EE0FA6
:101BE000FF1FE657FE4F8591949190939804809340
:101BF000970460E08DE00E9492038091A40481FD2F
:101C000004C061E08DE00E9463038DE08093920444
:101C1000E5EBF1E0E491E0939304E1EAF1E0E49193
:101C2000F0E0EE0FFF1FE058FE4F859194919093E6
:101C30009504809394040895EF920F931F93CF938C
:101C4000DF93E80147FD02C034E001C034E1042E17
:101C5000000C550B57FF03C0519541955109E32ED8
:101C6000022F242FAE010E943C0ECE01DF91CF91B6
:101C70001F910F91EF900895A9E0B0E0E2E4FEE03B
:101C80000C943A116A01122FB02E2BE3201720F08A
:101C9000FF24F394F00E02C02CE3F22E0F2D27E068
:101CA000AE014F5F5F4F0E94960FBC014981842FA8
:101CB0008970813031F0E1FC06C0E0FE06C090E2A0
:101CC00005C09DE203C09BE201C090E05E2D507113
:101CD00043FF3CC0911102C083E001C084E0811742
:101CE00018F4212F281B01C020E051110BC0F60170
:101CF000822F30E2882319F031938150FBCFC20E3E
:101D0000D11C20E0992329F0D6019C93F60131964D
:101D10006F01C6010396E2FE0AC03EE4D6013C9381
:101D200041E411964C93119712963C9306C03EE6FF
:101D3000F601308341E641833283FC01322F40E2D9
:101D4000332309F442C041933150FACF42FF44C0DB
:101D5000911102C083E001C084E0811718F4212FA3
:101D6000281B01C020E051110BC0F601822F30E288
:101D7000882319F031938150FBCFC20ED11C20E093
:101D8000992329F0D6019C93F60131966F01C60183
:101D90000396E2FE0BC039E4D6013C933EE4119673
:101DA0003C93119736E412963C9307C039E6F6014E
:101DB00030833EE6318336E63283FC01322F40E247
:101DC000332319F041933150FBCFFC01E20FF11D99
:101DD00010828EEF9FEFA6C021E030E0911102C08B
:101DE00020E030E0161617061CF4FB01319602C005
:101DF000E1E0F0E02E0F3F1FBB2021F0EB2DF0E0E3
:101E0000319602C0E0E0F0E02E0F3F1FE12FF0E03E
:101E10002E173F071CF4121B212F01C020E08E2D2E
:101E2000887159F4F601822F30E2882319F031933A
:101E30008150FBCFC20ED11C20E0992329F0D6019E
:101E40009C93F60131966F0151110BC0F601822F60
:101E500090E3882319F091938150FBCFC20ED11CDF
:101E600020E00F2D060F9A81342F307144FF03C0FC
:101E7000913309F40150101624F4093018F008E0E9
:101E800001C001E0AB0177FF02C040E050E0FB0180
:101E9000E41BF50BA1E0B0E0AC0FBD1FEA0FFB1F88
:101EA0008EE2A82E4B01801A91080B2D10E011959F
:101EB000019511094F3FBFEF5B0721F4D601AC92AA
:101EC00011966D01641775072CF08416950614F4AD
:101ED000818101C080E3415051093196D6011196AC
:101EE0007D014017510724F0D6018C936701E2CFA2
:101EF0006417750739F4963320F4953319F43111CA
:101F000001C081E3F6018083F701822F90E28823EC
:101F100019F091938150FBCFF701E20FF11D108270
:101F200080E090E02996ECE00C945611283008F0FF
:101F300027E03327DA01990F311D87FD9160009664
:101F40006105710539F432602E5F3D9330E32A95C7
:101F5000E1F708959F3F30F080387105610509F081
:101F60003C5F3C5F3D93913008F08068911DDF93AA
:101F7000CF931F930F93FF92EF92192F987F96950F
:101F8000E92F96959695E90FFF27EE53FF4F992776
:101F90003327EE24FF24A701E70105900894079456
:101FA00028F4360FE71EF81E491F511D660F771FD4
:101FB000881F991F0694A1F70590079428F4E70E4F
:101FC000F81E491F561FC11D770F881F991F661FD6
:101FD0000694A1F70590079428F4F80E491F561FA0
:101FE000C71FD11D880F991F661F771F0694A1F781
:101FF0000590079420F4490F561FC71FD81F990F4B
:10200000661F771F881F0694A9F784911095177093
:1020100041F0D695C79557954795F794E7941A954B
:10202000C1F7E8E6F0E06894159015913591659157
:10203000959105907FE27395E118F10A430B560BD9
:10204000C90BD009C0F7E10CF11E431F561FC91F71
:10205000D01D7EF4703311F48A95E6CFE8940150D8
:1020600030F0080F0AF40027021708F4202F2395F8
:10207000022F7A3328F079E37D932A95E9F710C08F
:102080007D932A9589F606949795679537951795C8
:102090001794E118F10A430B560BC90BD00998F0BD
:1020A00023957E9173957A3308F070E37C93201327
:1020B000B8F77E9170617D9330F0839571E37D93E5
:1020C00070E32A95E1F71124EF90FF900F911F9193
:1020D000CF91DF91992787FD90950895E89409C0E5
:1020E00097FB3EF490958095709561957F4F8F4F4B
:1020F0009F4F9923A9F0F92F96E9BB279395F69561
:10210000879577956795B795F111F8CFFAF4BB0FDE
:1021100011F460FF1BC06F5F7F4F8F4F9F4F16C042
:10212000882311F096E911C0772321F09EE8872FCC
:10213000762F05C0662371F096E8862F70E060E088
:102140002AF09A95660F771F881FDAF7880F969501
:10215000879597F9089597F99F6780E870E060E0A8
:1021600008959FEF80EC089500240A941616170630
:1021700018060906089500240A9412161306140678
:1021800005060895092E0394000C11F4882352F0DB
:10219000BB0F40F4BF2B11F460FF04C06F5F7F4F93
:1021A0008F4F9F4F089557FD9058440F551F59F07A
:1021B0005F3F71F04795880F97FB991F61F09F3F34
:1021C00079F087950895121613061406551FF2CF5D
:1021D0004695F1DF08C0161617061806991FF1CFAD
:1021E00086957105610508940895E894BB276627D4
:1021F0007727CB0197F90895F999FECF92BD81BD5C
:10220000F89A992780B50895262FF999FECF1FBA1D
:1022100092BD81BD20BD0FB6F894FA9AF99A0FBE0F
:1022200001960895A1E21A2EAA1BBB1BFD010DC049
:10223000AA1FBB1FEE1FFF1FA217B307E407F50776
:1022400020F0A21BB30BE40BF50B661F771F881F52
:10225000991F1A9469F760957095809590959B01E8
:10226000AC01BD01CF0108952F923F924F925F9232
:102270006F927F928F929F92AF92BF92CF92DF9296
:10228000EF92FF920F931F93CF93DF93CDB7DEB7FB
:10229000CA1BDB0B0FB6F894DEBF0FBECDBF09948F
:1022A0002A88398848885F846E847D848C849B84E6
:1022B000AA84B984C884DF80EE80FD800C811B81F4
:1022C000AA81B981CE0FD11D0FB6F894DEBF0FBE23
:1022D000CDBFED0108950E947F110C94C2100E94A1
:1022E000BB1058F00E94B41040F029F45F3F29F071
:1022F0000C94AB1051110C94F6100C94B1100E9478
:10230000D31068F39923B1F3552391F3951B550B23
:10231000BB27AA2762177307840738F09F5F5F4FB8
:10232000220F331F441FAA1FA9F335D00E2E3AF0F7
:10233000E0E832D091505040E695001CCAF72BD00F
:10234000FE2F29D0660F771F881FBB1F2617370760
:102350004807AB07B0E809F0BB0B802DBF01FF2792
:1023600093585F4F3AF09E3F510578F00C94AB10B4
:102370000C94F6105F3FE4F3983ED4F3869577957E
:102380006795B795F7959F5FC9F7880F911D96954B
:10239000879597F90895E1E0660F771F881FBB1FA7
:1023A000621773078407BA0720F0621B730B840B54
:1023B000BA0BEE1F88F7E095089597FB072E16F4E9
:1023C000009407D077FD09D00E94F11107FC05D0D9
:1023D0003EF4909581959F4F0895709561957F4F3C
:1023E0000895AA1BBB1B51E107C0AA1FBB1FA6175C
:1023F000B70710F0A61BB70B881F991F5A95A9F7AE
:1024000080959095BC01CD010895EE0FFF1F0590BA
:10241000F491E02D099481E090E0F8940C9410126E
:1024200010E0CFEDD0E004C0FE010E94051221961D
:0A243000C03ED107C9F7F894FFCFB2
:10243A000F270F2700000000730104050A01C001DD
:10244A003B0119012D010000000053020405DD02C1
:10245A005202A302BB023A02564D4450565F317CE7
:10246A00315F564D4450560D0A00564D4450525F46
:10247A00007C005F564D4450520D0A002020202057
:10248A0053504420414F4520202020200020204244
:10249A006F617420526163657220563220002020D9
:1024AA00416C6C2054696D6520426573742000206C
:1024BA0020526561647920746F205261636520003F
:1024CA0053656C656374203150206F72203250213D
:1024DA00003A00503152616365004472696E6B20A4
:1024EA007768656E2072656164790020202020205B
:1024FA00526163696E6720202020200050315265A6
:10250A0073756C747300416C6C2054696D6520524C
:10251A0065636F7264210053657373696F6E20522D
:10252A0065636F7264210020202056657279204706
:10253A006F6F642120202000202020204E6F7420FD
:10254A0042616420202020200050325261636500DD
:10255A002020507265737320427574746F6E202048
:10256A00002020205768656E20526561647920201A
:10257A00200020202020202020352020202020205C
:10258A00202000202020202020203420202020204D
:10259A00202020002020202020202033202020203E
:1025AA00202020200020202020202020322020202F
:1025BA002020202020002020202020202031202020
:1025CA002020202020200020202046616C736520D6
:1025DA005374617274202000202020202020546926
:1025EA0065202020202020200057696E6E65722009
:1025FA0020202020202020202000202020202020F1
:10260A002020202057696E6E6572005031496E692C
:10261A00740020202020506C61636520437570206F
:10262A0020200020202020546F20537461727420CF
:10263A00202020005032496E69740020202020504A
:0C264A006C6163652043757073202000F4
:107E0000112484B714BE81FFF0D085E080938100F7
:107E100082E08093C00088E18093C10086E0809377
:107E2000C20080E18093C4008EE0C9D0259A86E02C
:107E300020E33CEF91E0309385002093840096BBD3
:107E4000B09BFECF1D9AA8958150A9F7CC24DD24C4
:107E500088248394B5E0AB2EA1E19A2EF3E0BF2EE7
:107E6000A2D0813461F49FD0082FAFD0023811F036
:107E7000013811F484E001C083E08DD089C08234E0
:107E800011F484E103C0853419F485E0A6D080C0E4
:107E9000853579F488D0E82EFF2485D0082F10E0AE
:107EA000102F00270E291F29000F111F8ED06801E7
:107EB0006FC0863521F484E090D080E0DECF843638
:107EC00009F040C070D06FD0082F6DD080E0C81688
:107ED00080E7D80618F4F601B7BEE895C0E0D1E017
:107EE00062D089930C17E1F7F0E0CF16F0E7DF06D8
:107EF00018F0F601B7BEE89568D007B600FCFDCFD4
:107F0000A601A0E0B1E02C9130E011968C91119780
:107F100090E0982F8827822B932B1296FA010C0160
:107F200087BEE89511244E5F5F4FF1E0A038BF0790
:107F300051F7F601A7BEE89507B600FCFDCF97BE46
:107F4000E89526C08437B1F42ED02DD0F82E2BD052
:107F50003CD0F601EF2C8F010F5F1F4F84911BD097
:107F6000EA94F801C1F70894C11CD11CFA94CF0C13
:107F7000D11C0EC0853739F428D08EE10CD085E9AC
:107F80000AD08FE07ACF813511F488E018D01DD067
:107F900080E101D065CF982F8091C00085FFFCCF94
:107FA0009093C60008958091C00087FFFCCF809118
:107FB000C00084FD01C0A8958091C6000895E0E648
:107FC000F0E098E1908380830895EDDF803219F02E
:107FD00088E0F5DFFFCF84E1DECF1F93182FE3DFCA
:107FE0001150E9F7F2DF1F91089580E0E8DFEE27F6
:047FF000FF270994CA
:027FFE00040479
:0400000300007E007B
:00000001FF