:100000000C94E1000C9409010C9409010C94760401
:100010000C9476040C9476040C9409010C940C084E
:100020000C9409010C9409010C9409010C94090128
:100030000C9409010C9409010C9409010C94090118
:100040000C942C040C9409010C9409030C94E30205
:100050000C9409010C9409010C9409010C940901F8
:100060000C9409010C94090100407A10F35A00A085
:10007000724E18090010A5D4E80000E87648170071
:1000800000E40B54020000CA9A3B000000E1F505B1
:10009000000080969800000040420F000000A086FB
:1000A00001000000102700000000E803000000002D
:1000B0006400000000000A000000000001000000D1
:1000C00000002C76D888DC674F0823DFC1DFAE59EB
:1000D000E1B1B796E5E3E453C63AE651997696E87E
:1000E000E6C28426EB898C9B62ED407C6FFCEFBC02
:1000F0009C9F40F2BAA56FA5F490055A2AF75C932D
:100100006B6CF9676DC11BFCE0E40D47FEF520E662
:10011000B500D0ED902E0300943577050080841E45
:10012000080000204E0A000000C80C333333330FA0
:10013000986E12831141EF8D2114893BE65516CF3D
:10014000FEE6DB18D1844B381BF77C1D901DA4BB49
:10015000E424203284725E228100C9F124ECA1E5FE
:100160003D2700000000240027002A0000000008AE
:10017000000201000003040700000000000000006E
:1001800002000000002300260029000000000025D6
:100190000028002B000404040404040404020202E6
:1001A00002020203030303030301020408102040B8
:1001B00080010204081020010204081020004910E8
:1001C0002D1011241FBECFEFD8E0DEBFCDBF13E04E
:1001D000A0E0B1E0E8E6FAE202C005900D92A0349A
:1001E000B107D9F724E0A0E4B3E001C01D92AA3D15
:1001F000B207E1F710E0C0EED0E004C02197FE01A5
:100200000E941C15CF3DD107C9F70E9468080C94C5
:1002100027150C940000FC01538D448D252F30E0F0
:10022000842F90E0821B930B541710F0CF96089503
:1002300001970895FC01918D828D981761F0828D50
:10024000DF01A80FB11D5D968C91928D9F5F9F730A
:10025000928F90E008958FEF9FEF0895FC01918DAC
:10026000828D981731F0828DE80FF11D858D90E019
:1002700008958FEF9FEF0895FC01918D228D892FB6
:1002800090E0805C9F4F821B91098F73992708959E
:1002900085EC93E00E943C0121E0892B09F420E0E9
:1002A000822F0895FC01848DDF01A80FB11DA35A90
:1002B000BF4F2C91848D90E001968F739927848F86
:1002C000A689B7892C93A089B1898C9183708064A9
:1002D0008C93938D848D981306C00288F389E02D4A
:1002E00080818F7D80830895EF92FF920F931F93FB
:1002F000CF93DF93EC0181E0888F9B8D8C8D9813D9
:1003000005C0E889F989808185FD26C0F62E0B8D10
:1003100010E00F5F1F4F0F731127E02E8C8DE81236
:100320000CC00FB607FCFACFE889F989808185FFF8
:10033000F5CFCE010E945201F1CF8B8DFE01E80F67
:10034000F11DE35AFF4FF0829FB7F8940B8FEA89B3
:10035000FB89808180620AC09FB7F894EE89FF898B
:100360006083E889F98980818370806480839FBF7E
:1003700081E090E0DF91CF911F910F91FF90EF907E
:100380000895CF93DF93EC01888D8823C9F0EA8923
:10039000FB89808185FD05C0A889B9898C9186FD7E
:1003A0000FC00FB607FCF5CF808185FFF2CFA8897B
:1003B000B9898C9185FFEDCFCE010E945201E7CF24
:1003C000DF91CF91089580E090E0892B29F00E9481
:1003D000480181110C9400000895833081F028F4C5
:1003E000813099F08230A1F008958730A9F08830EB
:1003F000B9F08430D1F4809180008F7D03C080916A
:1004000080008F7780938000089584B58F7702C035
:1004100084B58F7D84BD08958091B0008F7703C02F
:100420008091B0008F7D8093B00008953FB7F8941D
:100430008091C1039091C203A091C303B091C40302
:1004400026B5A89B05C02F3F19F00196A11DB11D2F
:100450003FBFBA2FA92F982F8827820F911DA11D6A
:10046000B11DBC01CD0142E0660F771F881F991FA7
:100470004A95D1F7089520914203309143032817FC
:10048000390771F49091400380914103981741F02E
:10049000E0914003F0E0E458FC4F808190E0089543
:1004A0008FEF9FEF089508951F93CF93DF93DC01A3
:1004B0005C968D919C915D97009739F421E030E036
:1004C00013963C932E9312973BC05196ED91FC915D
:1004D000529750962C915097322F30951FB75E96B9
:1004E0004C915E97742F727041FD6095F894408135
:1004F000772311F0422B01C043234083EC01219765
:10050000F1F748E0508160FF02C0522B01C0532335
:100510005083EC012197F1F76695415099F780815E
:10052000772319F08323808302C0282B20831FBFE9
:100530005C968D919C915D970197F1F781E090E039
:10054000DF91CF911F910895209142033091430391
:100550002817390771F4809141032091400390E0FE
:10056000805C9F4F821B910960E470E00E94F4144C
:10057000089580E090E00895209142033091430374
:1005800028173907B9F490914003809141039817D7
:1005900089F0E0914003F0E0E458FC4F8081209125
:1005A000400330E02F5F3F4F2F73332720934003EA
:1005B00090E008958FEF9FEF0895089580E090E018
:1005C00008950E9422151F920F920FB60F921124C8
:1005D0002F933F934F935F936F937F938F939F934B
:1005E000AF93BF93EF93FF9385EC93E00E9452018A
:1005F000FF91EF91BF91AF919F918F917F916F91FB
:100600005F914F913F912F910F900FBE0F901F90D0
:1006100018951F920F920FB60F9211242F938F935C
:100620009F93EF93FF93E091D503F091D6038081E0
:10063000E091DB03F091DC0382FD12C09081809198
:10064000DE038F5F8F732091DF03821751F0E091FB
:10065000DE03F0E0EB53FC4F958F8093DE0301C087
:100660008081FF91EF919F918F912F910F900FBEFD
:100670000F901F901895CF93DF93282F30E0F9014A
:10068000E459FE4F8491F901E755FE4FD491F901E9
:10069000EB56FE4FC491CC2391F081110E94ED01E5
:1006A000EC2FF0E0EE0FFF1FEF57FE4FA591B49136
:1006B000EC91ED2381E090E021F480E002C080E045
:1006C00090E0DF91CF9108951F93CF93DF93282F70
:1006D00030E0F901E459FE4F8491F901E755FE4FEE
:1006E000D491F901EB56FE4FC491CC23C1F0162FE3
:1006F00081110E94ED01EC2FF0E0EE0FFF1FE55796
:10070000FE4FA591B4919FB7F894111104C08C913C
:10071000D095D82302C0EC91DE2BDC939FBFDF91F4
:10072000CF911F910895CF93DF9390E0FC01E7559F
:10073000FE4F2491FC01EB56FE4F8491882361F11A
:1007400090E0880F991FFC01EE59FE4FC591D4919E
:10075000FC01E557FE4FA591B491611109C09FB707
:10076000F8948881209582238883EC912E230BC0F6
:10077000623061F49FB7F8948881322F30958323DB
:100780008883EC912E2B2C939FBF06C08FB7F894D3
:10079000E8812E2B28838FBFDF91CF9108958E3073
:1007A00008F08E508770806480937C0080917A007E
:1007B000806480937A0080917A0086FDFCCF8091DE
:1007C00078002091790090E0922B08958F929F926B
:1007D000AF92BF92CF92DF92EF92FF926B017C01BA
:1007E0000E9416024B015C01C114D104E104F10422
:1007F000F1F00E941602DC01CB0188199909AA09BF
:10080000BB09883E9340A105B10570F321E0C21AEF
:10081000D108E108F10888EE880E83E0981EA11C3B
:10082000B11CC114D104E104F10419F7DDCFFF902C
:10083000EF90DF90CF90BF90AF909F908F900895F2
:100840002FB7F8946091BD037091BE038091BF03F0
:100850009091C0032FBF08951F920F920FB60F9271
:1008600011242F933F938F939F93AF93BF938091C6
:10087000BD039091BE03A091BF03B091C00330911E
:10088000BC0323E0230F2D3720F40196A11DB11DD9
:1008900005C026E8230F0296A11DB11D2093BC03BD
:1008A0008093BD039093BE03A093BF03B093C00396
:1008B0008091C1039091C203A091C303B091C4037E
:1008C0000196A11DB11D8093C1039093C203A09313
:1008D000C303B093C403BF91AF919F918F913F9198
:1008E0002F910F900FBE0F901F9018951F920F928F
:1008F0000FB60F9211242F933F934F935F936F93F3
:100900007F938F939F93AF93BF93EF93FF93E09168
:100910004203F0914303309709F451C0968DA685A8
:10092000B785858591FF04C09C91892329F447C030
:100930009C91892309F043C0A389B4899C9185893E
:10094000809589238C93868997890197F1F7608D2B
:10095000718DA685B785558538E020E0CB010197DC
:10096000F1F7822F90E095958795282F4C9145239C
:1009700009F02068315091F7868D81FD2095809196
:10098000410390E001968F73992730914003381707
:1009900049F0A0914103B0E0A458BC4F2C93809340
:1009A000410303C0868D8160868F828D938D019770
:1009B000F1F7A389B4899C918589892B8C93FF9148
:1009C000EF91BF91AF919F918F917F916F915F91C7
:1009D0004F913F912F910F900FBE0F901F90189540
:1009E0006115710579F0FB0101900020E9F731975D
:1009F000AF01461B570BDC01ED91FC910280F381A6
:100A0000E02D099480E090E00895CF92DF92EF927C
:100A1000FF920F931F93CF93DF936C017A018B01A9
:100A2000C0E0D0E0CE15DF0581F0D8016D918D01D9
:100A3000D601ED91FC910190F081E02DC601099560
:100A4000892B11F02196EECF7E01C701DF91CF9166
:100A50001F910F91FF90EF90DF90CF900895E5ECFC
:100A6000F3E0A089B18982E08C93A485B5851C92BE
:100A7000A685B78580E18C93108EA489B58986E020
:100A80008C93A289B3898C9180618C93A289B3895C
:100A90008C9188608C93A289B3898C9180688C93A7
:100AA0000288F389E02D80818F7D808308958F9265
:100AB0009F92AF92BF92CF92DF92EF92FF921F93DD
:100AC000CF93DF93EB0190910401891721F09F3FB1
:100AD00009F0F9C104C0E0E8F1E0149179C0809315
:100AE0000401E0E8F1E014911F3F09F4ECC111307A
:100AF00009F448C050F1123009F06AC01092B000F9
:100B00001092B1009091B00092609093B0009091DB
:100B1000B10091609093B100282F30E0F901EB56BD
:100B2000FE4FE491F0E0EE0FFF1FE557FE4F4591B9
:100B300054915093CB044093CA04F901E755FE4FFA
:100B4000E491E093C90412E0BAC114BC15BC94B599
:100B5000926094BD95B5916095BD282F30E0F90164
:100B6000EB56FE4FE491F0E0EE0FFF1FE557FE4F0E
:100B700045915491F901E755FE4FE491E093CD047E
:100B800010E09DC110928000109281009091810030
:100B90009860909381009091810091609093810082
:100BA000282F30E0F901EB56FE4FE491F0E0EE0F14
:100BB000FF1FE557FE4F45915491F901E755FE4F50
:100BC000E491E093CC0461E00E94930311E0A4C09F
:100BD00017FD79C161E00E949303812F8D7F09F099
:100BE0009BC06E01E12CF12C60E072E18AE790E09D
:100BF000A70196010E942C1449015A01BA01A901CA
:100C000041505109610971094F3F51056105710555
:100C100009F008F445C060E472E48FE090E0A701B9
:100C200096010E942C14BA01A90141505109610991
:100C300071091230E9F44F3F51056105710509F062
:100C400008F4DDC060E970ED83E090E0A701960153
:100C50000E942C14BA01A90141505109610971097E
:100C60004F3F51056105710509F020F583E04DC046
:100C70004F3F510561057105A9F0A0F068E478EED9
:100C800081E090E0A70196010E942C14BA01A9010D
:100C90004150510961097109112309F4E1C0D8C01B
:100CA00081E001C082E0111130C095B5987F892B99
:100CB00085BD69C068E478EE81E090E0A701960107
:100CC0000E942C14BA01A90141505109610971090E
:100CD0004F3F51056105710509F008F48EC064E2CB
:100CE00074EF80E090E0A70196010E942C14BA01F5
:100CF000A90141505109610971094F3F5105610531
:100D0000710511F008F07DC085E09091B100987FE9
:100D1000892B8093B10031C06E01E12CF12C60E091
:100D200072E18AE790E0A70196010E942C14BA01B3
:100D3000A90141505109610971094115510581E02D
:100D40006807710580F068E478EE81E090E0A70123
:100D500096010E942C14BA01A90141505109610960
:100D6000710983E001C081E0113039F49091810074
:100D7000987F892B8093810018C01130B1F0123018
:100D800049F11111A0C047BD8FEF9FEFDC018093A7
:100D9000D6049093D704A093D804B093D90480913B
:100DA0006E00826080936E008EC0509389004093E5
:100DB00088008FEF9FEFDC018093D2049093D304DF
:100DC000A093D404B093D50480916F008260809387
:100DD0006F0079C04093B3008FEF9FEFDC018093E9
:100DE000CE049093CF04A093D004B093D10480910B
:100DF000700082608093700066C084E086CF82E0DD
:100E000084CF62E17AE780E090E0A70196010E943A
:100E10002C14BA01A90141505109610971094F3FD0
:100E200051056105710591F088F0D501C4012AE0F2
:100E3000B595A795979587952A95D1F7AC01BD01F2
:100E4000415051096109710987E05FCF86E05DCFAC
:100E50004F3F51056105710509F098F684E023CFF5
:100E60004F3F51056105710541F138F162E17AE7C3
:100E700080E090E0A70196010E942C14BA01A9011C
:100E800041505109610971094F3F510561057105D3
:100E900091F088F0D501C4013AE0B595A7959795F2
:100EA00087953A95D1F7AC01BD01415051096109CF
:100EB000710985E0FACE84E0F8CE83E0F6CE61E0F9
:100EC0000E9493038ECEDF91CF911F91FF90EF9000
:100ED000DF90CF90BF90AF909F908F9008958F92AA
:100EE0009F92AF92BF92CF92DF92EF92FF926B01EF
:100EF0007C010E9420044B015C01C60ED71EE81E37
:100F0000F91E0E942004681579058A059B0528F0C2
:100F1000C616D706E806F906A0F7FF90EF90DF9017
:100F2000CF90BF90AF909F908F9008950C94F00455
:100F30008F929F92AF92BF92EF92FF920F931F9367
:100F4000CF93DF93CDB7DEB7A1970FB6F894DEBF8E
:100F50000FBECDBF7C01FA01CB0119A2223008F4EB
:100F60002AE08E010F5D1F4F822E912CA12CB12CF7
:100F7000BF01A50194010E940A14F901CA010150A0
:100F800011096A3014F4605D01C0695CD8016C938A
:100F9000232B242B252B61F7B801C7010E94F004F5
:100FA000A1960FB6F894DEBF0FBECDBFDF91CF91F3
:100FB0001F910F91FF90EF90BF90AF909F908F90F7
:100FC000089590910401891324C0E0E8F1E0E491D0
:100FD0009FEF90930401E130B9F098F0E230C9F44A
:100FE000909170009D7F9093700091E09093B0007D
:100FF0009091B100987F94609093B1001092B300EB
:1010000008C010926E0005C090916F009D7F909374
:101010006F0060E00C9464031F920F920FB60F9262
:1010200011242F933F934F935F936F937F938F93ED
:101030009F93AF93BF93EF93FF938091CE049091D2
:10104000CF04A091D004B091D104892B8A2B8B2B93
:1010500051F19091C904E091CA04F091CB048081D0
:10106000892780838091CE049091CF04A091D004F1
:10107000B091D104181619061A061B06C4F4809103
:10108000CE049091CF04A091D004B091D1040197E7
:10109000A109B1098093CE049093CF04A093D0040A
:1010A000B093D10404C0809104010E94E107FF9134
:1010B000EF91BF91AF919F918F917F916F915F91D0
:1010C0004F913F912F910F900FBE0F901F90189549
:1010D000789484B5826084BD84B5816084BD85B513
:1010E000826085BD85B5816085BD80916E0081601F
:1010F00080936E00109281008091810082608093C5
:1011000081008091810081608093810080918000C6
:101110008160809380008091B10084608093B100F1
:101120008091B00081608093B00080917A008460EB
:1011300080937A0080917A00826080937A00809117
:101140007A00816080937A0080917A008068809331
:101150007A001092C1001092A6041092A704109277
:10116000A8041092A90410926404109265041092CD
:1011700066041092670468EB7BE080E090E00E94D8
:101180006F0785EC93E09093A5048093A4040E94DC
:101190002F050E942004609364047093650480937B
:1011A00066049093670469E271E08091A4049091D1
:1011B000A5040E9496076AE070E080E090E00E943B
:1011C0006F0781E0809378040E94200400916404FA
:1011D000109165042091660430916704DC01CB0115
:1011E000801B910BA20BB30B84369105A105B105B1
:1011F00070F444E650E060E070E08A019B01081B57
:10120000190B2A0B3B0BC901B8010E946F070E9402
:101210002004609364047093650480936604909343
:1012200067046BE371E08091A4049091A5040E948F
:10123000960762E471E08091A4049091A5040E9455
:10124000960762E471E08091A4049091A5040E9445
:10125000960762E471E08091A4049091A5040E9435
:10126000960762E471E08091A4049091A5040E9425
:10127000960764E471E08091A4049091A5040E9413
:1012800096076AE070E080E090E00E946F0762E0FD
:1012900082E00E94930362E088E00E94930362E090
:1012A00083E00E94930362E087E00E94930362E080
:1012B00084E00E94930362E085E00E94930362E071
:1012C00086E00E94930362E08AE00E94930361E05B
:1012D0008BE00E9493031092C5041092C4041092F4
:1012E000C3041092C2041092C1041092C0048DE98C
:1012F00091E09093C7048093C6049091B604963110
:1013000008F058C02DEB30E03093C1042093C004A6
:101310002BE931E03093C3042093C2042CE231E086
:101320003093C5042093C40440916800983058F06D
:1013300031E09E3008F430E021E0822F01C0880FB8
:101340003A95EAF701C084E0842B809368009830D6
:1013500038F09E3040F0963148F020E030E008C090
:101360002DE630E005C02BE630E002C02CE630E090
:101370003093BE042093BD04983030F481E001C066
:10138000880F9A95EAF70EC0292F30E09E3018F4A6
:101390002850310902C02E50310981E001C0880F68
:1013A0002A95EAF78093BF048091C6049091C70400
:1013B0000197F1F78091C4049091C504892B49F1FC
:1013C000E0914203F091430314E0EA3AF10709F196
:1013D000309739F0A389B4899C91858980958923B8
:1013E0008C938091C8048E7F8093C804109241032F
:1013F000109240038AEA94E090934303809342035F
:10140000E091BD04F091BE0490818091BF04892BCE
:1014100080830E942F0560EA7FE080E090E00E94D8
:10142000E6036EEF8AEA94E00E94540261E08AEAE1
:1014300094E00E9454026DE471E08AEA94E00E9414
:10144000F0046EE571E08AEA94E00E94F00460ED39
:1014500077E080E090E00E94E6036EEF8AEA94E095
:101460000E94540261E08AEA94E00E94540280E003
:1014700090E00E94F413C82F81E090E00E94F413E2
:101480002C2F30E0322F2227282B3093030120937A
:1014900002016FE671E08AEA94E00E94F004609134
:1014A00002017091030180E090E00E94661320E049
:1014B00030E04AE754E40E94821460936003709322
:1014C000610380936203909363030CE413E023E0D1
:1014D00045E00E94141166EE72E08AEA94E00E94F0
:1014E000F004B8018AEA94E00E94F00468E873E12D
:1014F00080E090E00E94E6036EEF8AEA94E00E94AA
:10150000540261E08AEA94E00E94540260E871E0CB
:101510008AEA94E00E94F00461E971E08AEA94E0CA
:101520000E94F004C1E0D0E02FE0E22E27E2F22E8C
:101530000E942004009178031091790320917A038E
:1015400030917B03DC01CB01801B910BA20BB30B11
:1015500086399105A105B10508F4D2C00E94200486
:10156000609378037093790380937A0390937B035D
:1015700061E070E080E090E00E946F070E9420042C
:101580006093640470936504809366049093670489
:101590006BE371E08091A4049091A5040E949607EA
:1015A00062E471E08091A4049091A5040E949607E2
:1015B00000E0812C912C540110E020E0822F002EBD
:1015C00001C0880F0A94EAF7182B0F5F083031F03A
:1015D0003DE083169104A104B104A9F4412F50E029
:1015E00060E070E02AE08091A4049091A5040E943C
:1015F000980762EA71E08091A4049091A5040E948A
:10160000960700E010E061E070E080E090E00E946A
:101610006F078FEF881A980AA80AB80AAEE08A16F0
:101620009104A104B10471F021E082169104A10497
:10163000B10419F2882D0E943B0321E0892B09F0A7
:10164000BDCFBBCF61E070E080E090E00E946F070B
:1016500062E471E08091A4049091A5040E94960731
:10166000D12C8D2D0E94CF030091A4041091A504CC
:101670004C01990FAA08BB08B7FE12C0D801ED9122
:10168000FC910190F081E02D6DE2C801099544279D
:101690005527BA01481959096A097B092AE003C08C
:1016A0002AE0B501A401C8010E94980762EA71E02E
:1016B0008091A4049091A5040E949607D394B6E06B
:1016C000DB12CFCF62E471E08091A4049091A50475
:1016D0000E94960762E471E08091A4049091A504B1
:1016E0000E94960764E471E08091A4049091A5049F
:1016F0000E94960761E070E080E090E00E946F0732
:1017000086E00E943B03892B09F07BC384E00E94A2
:101710003B03892B09F075C36EEF72E085EC93E013
:101720000E94F0046EEF8AEA94E00E94540261E0A5
:101730008AEA94E00E94540265E073E08AEA94E049
:101740000E94F00466E173E08AEA94E00E94F004EB
:1017500010924B0310924A0380914A0390914B03DD
:10176000892B59F48EE00E94CF03843F9140A0F76B
:10177000D0934B03C0934A03EFCF64EA71E085EC4A
:1017800093E00E94F0046EEF8AEA94E00E94540213
:1017900061E08AEA94E00E9454026BEA71E08AEA0E
:1017A00094E00E94F00410924B0310924A0380913F
:1017B0004A0390914B03892B59F48EE00E94CF038A
:1017C000853F9140A0F3D0934B03C0934A03EFCFE2
:1017D0006EEF8AEA94E00E94540261E08AEA94E0A3
:1017E0000E9454026CEB71E08AEA94E00E94F004DB
:1017F0000E9420044B015C0160937003709371039D
:10180000809372039093730310924B0310924A03D8
:1018100080914A0390914B03892B51F482E00E94FE
:101820003B03892BA9F7D0934B03C0934A03F0CF16
:101830000E94200460937403709375038093760371
:10184000909377036819790970936F0360936E031F
:101850006DEC71E085EC93E00E94F00400916E0362
:1018600010916F03B80180E090E00E94661320E0C1
:1018700030E04AE754E40E9482146093600370935E
:1018800061038093620390936303809102019091BE
:1018900003010817190708F040C06EEF8AEA94E0C8
:1018A0000E94540261E08AEA94E00E94540267EDCB
:1018B00071E08AEA94E00E94F00460916003709104
:1018C000610380916203909163030CE413E023E0D1
:1018D00045E00E94141166EE72E08AEA94E00E94EC
:1018E000F004B8018AEA94E00E94F00480916E034B
:1018F00060916F0380930001609301018093020166
:101900006093030180E090E00E94FC1360916E03FD
:1019100081E090E00E94FC133BC280910001909115
:1019200001016EEF0817190788F58AEA94E00E9412
:10193000540261E08AEA94E00E94540268EE71E089
:101940008AEA94E00E94F004609160037091610360
:1019500080916203909163030CE413E023E045E07F
:101960000E94141166EE72E08AEA94E00E94F0048C
:10197000B8018AEA94E00E94F00480916E0390918D
:101980006F03909301018093000102C28AEA94E000
:10199000083B1B4050F40E94540261E08AEA94E044
:1019A0000E94540268EF71E009C00E94540261E095
:1019B0008AEA94E00E94540269E072E08AEA94E0C4
:1019C0000E94F00460916003709161038091620352
:1019D000909163030CE413E023E045E00E941411AE
:1019E00066EE72E08AEA94E00E94F004CCC18EE0D8
:1019F0000E94CF03843F914020F4D0934B03C093C7
:101A00004A038FE00E94CF03843F914020F4D0939B
:101A10004903C093480380914A0390914B03892B5B
:101A200031F38091480390914903892B01F36AE1D6
:101A300072E085EC93E00E94F0046EEF8AEA94E095
:101A40000E94540261E08AEA94E00E94540261E23A
:101A500072E08AEA94E00E94F00462E372E08AEAAB
:101A600094E00E94F00410924B0310924A031092EB
:101A700049031092480380914A0390914B03892BAC
:101A800009F4EEC18091480390914903892B09F430
:101A9000E7C16EEF8AEA94E00E94540261E08AEAAC
:101AA00094E00E94540263E472E08AEA94E00E94A7
:101AB000F00468EE73E080E090E00E94E6036EEFD1
:101AC0008AEA94E00E94540261E08AEA94E00E946B
:101AD000540264E572E08AEA94E00E94F00468EE41
:101AE00073E080E090E00E94E6036EEF8AEA94E003
:101AF0000E94540261E08AEA94E00E94540265E682
:101B000072E08AEA94E00E94F00464EE7CE08BE0EC
:101B10000E94570564EF71E080E090E00E94E603C8
:101B20008BE00E94E10764EF71E080E090E00E94AA
:101B3000E6036EEF8AEA94E00E94540261E08AEACA
:101B400094E00E94540266E772E08AEA94E00E9400
:101B5000F00464EE7CE08BE00E94570564EF71E0D6
:101B600080E090E00E94E6038BE00E94E10764EFD2
:101B700071E080E090E00E94E6036EEF8AEA94E074
:101B80000E94540261E08AEA94E00E94540267E8ED
:101B900072E08AEA94E00E94F00464EE7CE08BE05C
:101BA0000E94570564EF71E080E090E00E94E60338
:101BB0008BE00E94E10764EF71E080E090E00E941A
:101BC000E60310924B0310924A03109249031092BD
:101BD00048038EE00E94CF038C018FE00E94CF0368
:101BE000053F114008F46CC1D0934B03C0934A03E6
:101BF000D0934903C09348036EEF853F914008F4AA
:101C000043C18AEA94E00E94540261E08AEA94E0C7
:101C10000E94540268E972E08AEA94E00E94F004AB
:101C20008091700390917103A0917203B09173033E
:101C30008093740390937503A0937603B093770316
:101C40008091660390916703A0916803B091690346
:101C500080936A0390936B03A0936C03B0936D031E
:101C600068EB7BE080E090E00E94E60300914A038D
:101C700010914B030115110509F48CC180914803A3
:101C800090914903892B09F485C18BE00E94E107FB
:101C9000A0907403B09075038091700390917103CC
:101CA000A81AB90AB0926F03A0926E0300916A035A
:101CB00010916B038091660390916703081B190BC9
:101CC0001093650300936403B50180E090E00E94E7
:101CD000661320E030E04AE754E40E9482146093E7
:101CE0006003709361038093620390936303B80170
:101CF00080E090E00E94661320E030E04AE754E480
:101D00000E94821460935C0370935D0380935E0372
:101D100090935F036EEF8AEA94E00E94540261E0C0
:101D20008AEA94E00E945402A016B10609F06EC13E
:101D30006BEC72E08AEA94E00E94F0046091600328
:101D40007091610380916203909163030CE413E04E
:101D500023E045E00E941411B8018AEA94E00E9451
:101D6000F00468EE72E08AEA94E00E94F004609168
:101D70005C0370915D0380915E0390915F0323E0AB
:101D800045E00E941411B8018AEA94E00E94F00430
:101D900068E873E180E090E00E94E6036EEF8AEA73
:101DA00094E00E94540261E08AEA94E00E945402A6
:101DB00060E871E08AEA94E00E94F00461E971E071
:101DC0008AEA94E00E94F0048AE00E943B03892B97
:101DD000A9F4F0920301E092020167E280E090E052
:101DE0000E94FC136091020181E090E00E94FC13CC
:101DF00068EE73E080E090E00E94E6030E94E30159
:101E000097CB86E00E943B03892BF1F685E00E9488
:101E10003B03892BC9F667E273E085EC93E00E94EF
:101E2000F0046EEF8AEA94E00E94540261E08AEACC
:101E300094E00E9454026EE273E08AEA94E00E9409
:101E4000F00466E173E08AEA94E00E94F0041092E4
:101E50004B0310924A031092490310924803DBCDC2
:101E600083E00E943B03892B21F4D0934B03C09362
:101E70004A0387E00E943B03892B09F0FCCDD093F5
:101E80004903C0934803F7CD8AEA94E00E945402C4
:101E900061E08AEA94E00E94540269EA72E08AEA08
:101EA00094E00E94F0048091700390917103A091DE
:101EB0007203B0917303815F984DAF4FBF4FB8CE9F
:101EC000853F9140A8F1D0934B03C0934A03D09330
:101ED0004903C09348036EEF8AEA94E00E945402DB
:101EE00061E08AEA94E00E9454026AEB72E08AEAB6
:101EF00094E00E94F0048091700390917103A0918E
:101F00007203B09173038093740390937503A0934D
:101F10007603B09377038091660390916703A09155
:101F20006803B0916903815F984DAF4FBF4F90CE6A
:101F30000E94200460937003709371038093720376
:101F400090937303609366037093670380936803B1
:101F50009093690364EE7CE08BE00E9457050E9439
:101F60002004609344037093450380934603909349
:101F700047036EEF8AEA94E00E94540261E08AEA25
:101F800094E00E9454026CEB71E08AEA94E00E94B3
:101F9000F0046CCE0E94200480904403909045038E
:101FA000A0904603B09047032401350124EF420E70
:101FB00021E0521E611C711C64157505860597058C
:101FC00008F454CE82E00E943B03892B11F4012BCC
:101FD00031F188E00E943B03892B31F48091480362
:101FE00090914903892B51F10E94200438EE830E11
:101FF00033E0931EA11CB11C86169706A806B906ED
:1020000008F034CE8BE00E94E10730CEA016B10676
:1020100018F46CED72E08ECE6DEE72E08BCED09344
:102020004B03C0934A030E9420046093740370938F
:1020300075038093760390937703CBCFD0934903B6
:10204000C09348030E94200460936A0370936B035B
:1020500080936C0390936D03C7CF8BE191E09093D5
:10206000AB048093AA0480914203909143038A5A5F
:10207000944071F4E091BD04F091BE049081809190
:10208000BF048095892380831092430310924203FA
:1020900008951092C8031092C70388EE93E0A0E061
:1020A000B0E08093C9039093CA03A093CB03B0938D
:1020B000CC0329E031E03093C6032093C50325EC1F
:1020C00030E03093D2032093D10324EC30E03093FE
:1020D000D4032093D30320EC30E03093D603209335
:1020E000D50321EC30E03093D8032093D70322ECC2
:1020F00030E03093DA032093D90326EC30E03093BC
:10210000DC032093DB031092DE031092DF031092B6
:10211000E0031092E1031092680410926904109297
:102120006A0410926B0410926C0410926D04109269
:102130006E0410926F041092700410927104109249
:102140007204109273041092740410927504109229
:102150007604109277041092AD041092AC04809330
:10216000AE049093AF04A093B004B093B1048BE19C
:1021700091E09093AB048093AA041092C104109252
:10218000C0041092C3041092C2041092C5041092AD
:10219000C4041092C7041092C6046091C8046E7FF4
:1021A0006D7F6093C8046695617081E068278CE05C
:1021B0000E94640361E08CE00E949303E5EBF1E090
:1021C000E491E093BA04E1EAF1E0E491F0E0EE0F8B
:1021D000FF1FE557FE4F859194919093BC04809327
:1021E000BB0460E08DE00E9493038091C80481FDF0
:1021F00004C061E08DE00E9464038DE08093B6042A
:10220000E6EBF1E0E491E093B704E2EAF1E0E49177
:10221000F0E0EE0FFF1FEF57FE4F859194919093E2
:10222000B9048093B8040895EF920F931F93CF934E
:10223000DF93E80147FD02C034E001C034E1042E21
:10224000000C550B57FF03C0519541955109E32EE2
:10225000022F242FAE010E943411CE01DF91CF91C5
:102260001F910F91EF900895A9E0B0E0EAE3F1E14A
:102270000C9451146A01122FB02E2BE3201720F07A
:10228000FF24F394F00E02C02CE3F22E0F2D27E072
:10229000AE014F5F5F4F0E948E12BC014981842FB7
:1022A0008970813031F0E1FC06C0E0FE06C090E2AA
:1022B00005C09DE203C09BE201C090E05E2D50711D
:1022C00043FF3CC0911102C083E001C084E081174C
:1022D00018F4212F281B01C020E051110BC0F6017A
:1022E000822F30E2882319F031938150FBCFC20E48
:1022F000D11C20E0992329F0D6019C93F601319658
:102300006F01C6010396E2FE0AC03EE4D6013C938B
:1023100041E411964C93119712963C9306C03EE609
:10232000F601308341E641833283FC01322F40E2E3
:10233000332309F442C041933150FACF42FF44C0E5
:10234000911102C083E001C084E0811718F4212FAD
:10235000281B01C020E051110BC0F601822F30E292
:10236000882319F031938150FBCFC20ED11C20E09D
:10237000992329F0D6019C93F60131966F01C6018D
:102380000396E2FE0BC039E4D6013C933EE411967D
:102390003C93119736E412963C9307C039E6F60158
:1023A00030833EE6318336E63283FC01322F40E251
:1023B000332319F041933150FBCFFC01E20FF11DA3
:1023C00010828EEF9FEFA6C021E030E0911102C095
:1023D00020E030E0161617061CF4FB01319602C00F
:1023E000E1E0F0E02E0F3F1FBB2021F0EB2DF0E0ED
:1023F000319602C0E0E0F0E02E0F3F1FE12FF0E049
:102400002E173F071CF4121B212F01C020E08E2D38
:10241000887159F4F601822F30E2882319F0319344
:102420008150FBCFC20ED11C20E0992329F0D601A8
:102430009C93F60131966F0151110BC0F601822F6A
:1024400090E3882319F091938150FBCFC20ED11CE9
:1024500020E00F2D060F9A81342F307144FF03C006
:10246000913309F40150101624F4093018F008E0F3
:1024700001C001E0AB0177FF02C040E050E0FB018A
:10248000E41BF50BA1E0B0E0AC0FBD1FEA0FFB1F92
:102490008EE2A82E4B01801A91080B2D10E01195A9
:1024A000019511094F3FBFEF5B0721F4D601AC92B4
:1024B00011966D01641775072CF08416950614F4B7
:1024C000818101C080E3415051093196D6011196B6
:1024D0007D014017510724F0D6018C936701E2CFAC
:1024E0006417750739F4963320F4953319F43111D4
:1024F00001C081E3F6018083F701822F90E28823F7
:1025000019F091938150FBCFF701E20FF11D10827A
:1025100080E090E02996ECE00C946D14283008F0EF
:1025200027E03327DA01990F311D87FD916000966E
:102530006105710539F432602E5F3D9330E32A95D1
:10254000E1F708959F3F30F080387105610509F08B
:102550003C5F3C5F3D93913008F08068911DDF93B4
:10256000CF931F930F93FF92EF92192F987F969519
:10257000E92F96959695E90FFF27EE53FF4F992780
:102580003327EE24FF24A701E70105900894079460
:1025900028F4360FE71EF81E491F511D660F771FDE
:1025A000881F991F0694A1F70590079428F4E70E59
:1025B000F81E491F561FC11D770F881F991F661FE0
:1025C0000694A1F70590079428F4F80E491F561FAA
:1025D000C71FD11D880F991F661F771F0694A1F78B
:1025E0000590079420F4490F561FC71FD81F990F55
:1025F000661F771F881F0694A9F78491109517709E
:1026000041F0D695C79557954795F794E7941A9555
:10261000C1F7E8E6F0E06894159015913591659161
:10262000959105907FE27395E118F10A430B560BE3
:10263000C90BD009C0F7E10CF11E431F561FC91F7B
:10264000D01D7EF4703311F48A95E6CFE8940150E2
:1026500030F0080F0AF40027021708F4202F239502
:10266000022F7A3328F079E37D932A95E9F710C099
:102670007D932A9589F606949795679537951795D2
:102680001794E118F10A430B560BC90BD00998F0C7
:1026900023957E9173957A3308F070E37C93201331
:1026A000B8F77E9170617D9330F0839571E37D93EF
:1026B00070E32A95E1F71124EF90FF900F911F919D
:1026C000CF91DF91992787FD90950895E89409C0EF
:1026D00097FB3EF490958095709561957F4F8F4F55
:1026E0009F4F9923A9F0F92F96E9BB279395F6956B
:1026F000879577956795B795F111F8CFFAF4BB0FE9
:1027000011F460FF1BC06F5F7F4F8F4F9F4F16C04C
:10271000882311F096E911C0772321F09EE8872FD6
:10272000762F05C0662371F096E8862F70E060E092
:102730002AF09A95660F771F881FDAF7880F96950B
:10274000879597F9089597F99F6780E870E060E0B2
:1027500008959FEF80EC089500240A94161617063A
:1027600018060906089500240A9412161306140682
:1027700005060895092E0394000C11F4882352F0E5
:10278000BB0F40F4BF2B11F460FF04C06F5F7F4F9D
:102790008F4F9F4F089557FD9058440F551F59F084
:1027A0005F3F71F04795880F97FB991F61F09F3F3E
:1027B00079F087950895121613061406551FF2CF67
:1027C0004695F1DF08C0161617061806991FF1CFB7
:1027D00086957105610508940895E894BB276627DE
:1027E0007727CB0197F90895F999FECF92BD81BD66
:1027F000F89A992780B50895262FF999FECF1FBA28
:1028000092BD81BD20BD0FB6F894FA9AF99A0FBE19
:1028100001960895A1E21A2EAA1BBB1BFD010DC053
:10282000AA1FBB1FEE1FFF1FA217B307E407F50780
:1028300020F0A21BB30BE40BF50B661F771F881F5C
:10284000991F1A9469F760957095809590959B01F2
:10285000AC01BD01CF010895052E97FB1EF4009435
:102860000E94431457FD07D00E940A1407FC03D0AE
:102870004EF40C94431450954095309521953F4F5C
:102880004F4F5F4F089590958095709561957F4F5C
:102890008F4F9F4F08952F923F924F925F926F926A
:1028A0007F928F929F92AF92BF92CF92DF92EF92E0
:1028B000FF920F931F93CF93DF93CDB7DEB7CA1B61
:1028C000DB0B0FB6F894DEBF0FBECDBF09942A888C
:1028D000398848885F846E847D848C849B84AA8434
:1028E000B984C884DF80EE80FD800C811B81AA81C1
:1028F000B981CE0FD11D0FB6F894DEBF0FBECDBF8C
:10290000ED0108950E9496140C94BA130E94B3131B
:1029100058F00E94AC1340F029F45F3F29F00C946A
:10292000A31351110C94EE130C94A9130E94CB1312
:1029300068F39923B1F3552391F3951B550BBB27EE
:10294000AA2762177307840738F09F5F5F4F220F33
:10295000331F441FAA1FA9F335D00E2E3AF0E0E82A
:1029600032D091505040E695001CCAF72BD0FE2F74
:1029700029D0660F771F881FBB1F26173707480708
:10298000AB07B0E809F0BB0B802DBF01FF279358C0
:102990005F4F3AF09E3F510578F00C94A3130C94CE
:1029A000EE135F3FE4F3983ED4F3869577956795F1
:1029B000B795F7959F5FC9F7880F911D96958795F5
:1029C00097F90895E1E0660F771F881FBB1F621714
:1029D00073078407BA0720F0621B730B840BBA0BD2
:1029E000EE1F88F7E095089597FB072E16F40094E4
:1029F00007D077FD09D00E94081507FC05D03EF4EA
:102A0000909581959F4F0895709561957F4F08959A
:102A1000AA1BBB1B51E107C0AA1FBB1FA617B70704
:102A200010F0A61BB70B881F991F5A95A9F7809520
:102A30009095BC01CD010895EE0FFF1F0590F49114
:102A4000E02D099481E090E0F8940C94271510E0B3
:102A5000C0EED0E004C0FE010E941C152196C13ECC
:082A6000D107C9F7F894FFCF7C
:102A68000F270F27FF00000000740105050B01C1A7
:102A7800013C011A012E010000000054020505DE88
:102A8800025302A402BC023B02564D4450565F3129
:102A98007C315F564D4450560D0A00564D445052F5
:102AA8005F007C005F564D4450520D0A00202020E4
:102AB8002053504420414F45202020202000202032
:102AC800426F617420526163657220563220002083
:102AD80020416C6C2054696D652042657374200038
:102AE8002020526561647920746F205261636520EB
:102AF8000053656C656374203150206F722032502A
:102B080021003A00503152616365004472696E6B6E
:102B1800207768656E207265616479002020202026
:102B280020526163696E67202020202000503152B6
:102B38006573756C747300416C6C2054696D652005
:102B48005265636F7264210053657373696F6E20F9
:102B58005265636F726421002020205665727920C7
:102B6800476F6F642120202000202020204E6F74A2
:102B78002042616420202020200050325261636589
:102B8800002020507265737320427574746F6E2034
:102B980020002020205768656E20526561647920E6
:102BA8002020002020202020202035202020202028
:102BB8002020200020202020202020342020202019
:102BC800202020200020202020202020332020200A
:102BD80020202020200020202020202020322020FB
:102BE80020202020202000202020202020203120EC
:102BF80020202020202020002032782046616C737D
:102C080065205374617274200046616C73652053AB
:102C1800746172742020202020002020202020466B
:102C2800616C736520537461727400202020202029
:102C380020546965202020202020200057696E6ECE
:102C48006572202020202020202020200020202005
:102C58002020202020202057696E6E657200503198
:102C6800496E69740020202020506C616365204300
:102C780075702020200020202020546F205374617C
:102C8800727420202020005032496E697400202080
:102C98002020506C6163652043757073202000000C
:107E0000112484B714BE81FFF0D085E080938100F7
:107E100082E08093C00088E18093C10086E0809377
:107E2000C20080E18093C4008EE0C9D0259A86E02C
:107E300020E33CEF91E0309385002093840096BBD3
:107E4000B09BFECF1D9AA8958150A9F7CC24DD24C4
:107E500088248394B5E0AB2EA1E19A2EF3E0BF2EE7
:107E6000A2D0813461F49FD0082FAFD0023811F036
:107E7000013811F484E001C083E08DD089C08234E0
:107E800011F484E103C0853419F485E0A6D080C0E4
:107E9000853579F488D0E82EFF2485D0082F10E0AE
:107EA000102F00270E291F29000F111F8ED06801E7
:107EB0006FC0863521F484E090D080E0DECF843638
:107EC00009F040C070D06FD0082F6DD080E0C81688
:107ED00080E7D80618F4F601B7BEE895C0E0D1E017
:107EE00062D089930C17E1F7F0E0CF16F0E7DF06D8
:107EF00018F0F601B7BEE89568D007B600FCFDCFD4
:107F0000A601A0E0B1E02C9130E011968C91119780
:107F100090E0982F8827822B932B1296FA010C0160
:107F200087BEE89511244E5F5F4FF1E0A038BF0790
:107F300051F7F601A7BEE89507B600FCFDCF97BE46
:107F4000E89526C08437B1F42ED02DD0F82E2BD052
:107F50003CD0F601EF2C8F010F5F1F4F84911BD097
:107F6000EA94F801C1F70894C11CD11CFA94CF0C13
:107F7000D11C0EC0853739F428D08EE10CD085E9AC
:107F80000AD08FE07ACF813511F488E018D01DD067
:107F900080E101D065CF982F8091C00085FFFCCF94
:107FA0009093C60008958091C00087FFFCCF809118
:107FB000C00084FD01C0A8958091C6000895E0E648
:107FC000F0E098E1908380830895EDDF803219F02E
:107FD00088E0F5DFFFCF84E1DECF1F93182FE3DFCA
:107FE0001150E9F7F2DF1F91089580E0E8DFEE27F6
:047FF000FF270994CA
:027FFE00040479
:0400000300007E007B
:00000001FF